{
  "_format": "hh-sol-artifact-1",
  "contractName": "Marketplace",
  "sourceName": "src/backend/contracts/Marketplace.sol",
  "abi": [
    {
      "inputs": [
        {
          "internalType": "uint256",
          "name": "_feePercent",
          "type": "uint256"
        }
      ],
      "stateMutability": "nonpayable",
      "type": "constructor"
    },
    {
      "anonymous": false,
      "inputs": [
        {
          "indexed": false,
          "internalType": "uint256",
          "name": "itemId",
          "type": "uint256"
        },
        {
          "indexed": true,
          "internalType": "address",
          "name": "nft",
          "type": "address"
        },
        {
          "indexed": false,
          "internalType": "uint256",
          "name": "tokenId",
          "type": "uint256"
        },
        {
          "indexed": false,
          "internalType": "uint256",
          "name": "price",
          "type": "uint256"
        },
        {
          "indexed": true,
          "internalType": "address",
          "name": "seller",
          "type": "address"
        },
        {
          "indexed": true,
          "internalType": "address",
          "name": "buyer",
          "type": "address"
        }
      ],
      "name": "Bought",
      "type": "event"
    },
    {
      "anonymous": false,
      "inputs": [
        {
          "indexed": false,
          "internalType": "uint256",
          "name": "itemId",
          "type": "uint256"
        },
        {
          "indexed": true,
          "internalType": "address",
          "name": "nft",
          "type": "address"
        },
        {
          "indexed": false,
          "internalType": "uint256",
          "name": "tokenId",
          "type": "uint256"
        },
        {
          "indexed": false,
          "internalType": "uint256",
          "name": "price",
          "type": "uint256"
        },
        {
          "indexed": true,
          "internalType": "address",
          "name": "owner",
          "type": "address"
        }
      ],
      "name": "Offered",
      "type": "event"
    },
    {
      "inputs": [
        {
          "internalType": "contract IERC721",
          "name": "_nft",
          "type": "address"
        },
        {
          "internalType": "uint256",
          "name": "_tokenId",
          "type": "uint256"
        },
        {
          "internalType": "uint256",
          "name": "_price",
          "type": "uint256"
        }
      ],
      "name": "Offer",
      "outputs": [],
      "stateMutability": "nonpayable",
      "type": "function"
    },
    {
      "inputs": [
        {
          "internalType": "uint256",
          "name": "itemId",
          "type": "uint256"
        },
        {
          "internalType": "address",
          "name": "to",
          "type": "address"
        },
        {
          "internalType": "uint256",
          "name": "tokenId",
          "type": "uint256"
        }
      ],
      "name": "approve",
      "outputs": [],
      "stateMutability": "nonpayable",
      "type": "function"
    },
    {
      "inputs": [
        {
          "internalType": "uint256",
          "name": "itemId",
          "type": "uint256"
        }
      ],
      "name": "approveMarketplace",
      "outputs": [],
      "stateMutability": "nonpayable",
      "type": "function"
    },
    {
      "inputs": [
        {
          "internalType": "uint256",
          "name": "_itemId",
          "type": "uint256"
        }
      ],
      "name": "claimFromFixedAccount",
      "outputs": [],
      "stateMutability": "nonpayable",
      "type": "function"
    },
    {
      "inputs": [],
      "name": "feeAccount",
      "outputs": [
        {
          "internalType": "address payable",
          "name": "",
          "type": "address"
        }
      ],
      "stateMutability": "view",
      "type": "function"
    },
    {
      "inputs": [],
      "name": "feePercent",
      "outputs": [
        {
          "internalType": "uint256",
          "name": "",
          "type": "uint256"
        }
      ],
      "stateMutability": "view",
      "type": "function"
    },
    {
      "inputs": [
        {
          "internalType": "address",
          "name": "owner",
          "type": "address"
        }
      ],
      "name": "getItemsByOwner",
      "outputs": [
        {
          "components": [
            {
              "internalType": "uint256",
              "name": "itemId",
              "type": "uint256"
            },
            {
              "internalType": "contract IERC721",
              "name": "nft",
              "type": "address"
            },
            {
              "internalType": "uint256",
              "name": "tokenId",
              "type": "uint256"
            },
            {
              "internalType": "uint256",
              "name": "price",
              "type": "uint256"
            },
            {
              "internalType": "address payable",
              "name": "seller",
              "type": "address"
            },
            {
              "internalType": "address payable",
              "name": "owner",
              "type": "address"
            },
            {
              "internalType": "bool",
              "name": "sold",
              "type": "bool"
            }
          ],
          "internalType": "struct Marketplace.Item[]",
          "name": "",
          "type": "tuple[]"
        }
      ],
      "stateMutability": "view",
      "type": "function"
    },
    {
      "inputs": [
        {
          "internalType": "uint256",
          "name": "itemId",
          "type": "uint256"
        }
      ],
      "name": "getTokenId",
      "outputs": [
        {
          "internalType": "uint256",
          "name": "",
          "type": "uint256"
        }
      ],
      "stateMutability": "view",
      "type": "function"
    },
    {
      "inputs": [
        {
          "internalType": "uint256",
          "name": "_itemId",
          "type": "uint256"
        }
      ],
      "name": "getTotalPrice",
      "outputs": [
        {
          "internalType": "uint256",
          "name": "",
          "type": "uint256"
        }
      ],
      "stateMutability": "view",
      "type": "function"
    },
    {
      "inputs": [
        {
          "internalType": "uint256",
          "name": "_itemId",
          "type": "uint256"
        }
      ],
      "name": "isSold",
      "outputs": [
        {
          "internalType": "bool",
          "name": "",
          "type": "bool"
        }
      ],
      "stateMutability": "view",
      "type": "function"
    },
    {
      "inputs": [],
      "name": "itemCount",
      "outputs": [
        {
          "internalType": "uint256",
          "name": "",
          "type": "uint256"
        }
      ],
      "stateMutability": "view",
      "type": "function"
    },
    {
      "inputs": [
        {
          "internalType": "uint256",
          "name": "",
          "type": "uint256"
        }
      ],
      "name": "items",
      "outputs": [
        {
          "internalType": "uint256",
          "name": "itemId",
          "type": "uint256"
        },
        {
          "internalType": "contract IERC721",
          "name": "nft",
          "type": "address"
        },
        {
          "internalType": "uint256",
          "name": "tokenId",
          "type": "uint256"
        },
        {
          "internalType": "uint256",
          "name": "price",
          "type": "uint256"
        },
        {
          "internalType": "address payable",
          "name": "seller",
          "type": "address"
        },
        {
          "internalType": "address payable",
          "name": "owner",
          "type": "address"
        },
        {
          "internalType": "bool",
          "name": "sold",
          "type": "bool"
        }
      ],
      "stateMutability": "view",
      "type": "function"
    },
    {
      "inputs": [
        {
          "internalType": "contract IERC721",
          "name": "_nft",
          "type": "address"
        },
        {
          "internalType": "uint256",
          "name": "_tokenId",
          "type": "uint256"
        },
        {
          "internalType": "uint256",
          "name": "_price",
          "type": "uint256"
        }
      ],
      "name": "makeItem",
      "outputs": [],
      "stateMutability": "nonpayable",
      "type": "function"
    },
    {
      "inputs": [
        {
          "internalType": "uint256",
          "name": "_itemId",
          "type": "uint256"
        }
      ],
      "name": "ownerOf",
      "outputs": [
        {
          "internalType": "address",
          "name": "",
          "type": "address"
        }
      ],
      "stateMutability": "view",
      "type": "function"
    },
    {
      "inputs": [
        {
          "internalType": "uint256",
          "name": "_itemId",
          "type": "uint256"
        }
      ],
      "name": "purchaseItem",
      "outputs": [],
      "stateMutability": "payable",
      "type": "function"
    },
    {
      "inputs": [
        {
          "internalType": "uint256",
          "name": "_itemId",
          "type": "uint256"
        },
        {
          "internalType": "uint256",
          "name": "_price",
          "type": "uint256"
        }
      ],
      "name": "reSell",
      "outputs": [],
      "stateMutability": "nonpayable",
      "type": "function"
    }
  ],
  "bytecode": "0x60c06040523480156200001157600080fd5b5060405162002c1338038062002c138339818101604052810190620000379190620000c2565b60016000819055503373ffffffffffffffffffffffffffffffffffffffff1660808173ffffffffffffffffffffffffffffffffffffffff16815250508060a0818152505050620000f4565b600080fd5b6000819050919050565b6200009c8162000087565b8114620000a857600080fd5b50565b600081519050620000bc8162000091565b92915050565b600060208284031215620000db57620000da62000082565b5b6000620000eb84828501620000ab565b91505092915050565b60805160a051612aeb6200012860003960008181610bb70152611140015260008181610b8d01526113a30152612aeb6000f3fe6080604052600436106100f35760003560e01c80637fd6f15c1161008a578063ca7dd37511610059578063ca7dd37514610354578063d38ea5bf14610391578063f55603d8146103ad578063fa00afc7146103d6576100f3565b80637fd6f15c146102945780638cb0a511146102bf578063b25d0edc146102e8578063bfb231d214610311576100f3565b80634a68fde1116100c65780634a68fde1146101d85780636352211e1461020157806365e17c9d1461023e5780636bfb0d0114610269576100f3565b80630110a176146100f857806314ff5ea3146101355780632c67a8e5146101725780632eb50ef7146101af575b600080fd5b34801561010457600080fd5b5061011f600480360381019061011a9190611d2d565b6103ff565b60405161012c9190611d75565b60405180910390f35b34801561014157600080fd5b5061015c60048036038101906101579190611d2d565b610431565b6040516101699190611d9f565b60405180910390f35b34801561017e57600080fd5b5061019960048036038101906101949190611e18565b610456565b6040516101a69190612020565b60405180910390f35b3480156101bb57600080fd5b506101d660048036038101906101d19190611d2d565b610678565b005b3480156101e457600080fd5b506101ff60048036038101906101fa9190612080565b6107ba565b005b34801561020d57600080fd5b5061022860048036038101906102239190611d2d565b610b4b565b60405161023591906120e2565b60405180910390f35b34801561024a57600080fd5b50610253610b8b565b604051610260919061210c565b60405180910390f35b34801561027557600080fd5b5061027e610baf565b60405161028b9190611d9f565b60405180910390f35b3480156102a057600080fd5b506102a9610bb5565b6040516102b69190611d9f565b60405180910390f35b3480156102cb57600080fd5b506102e660048036038101906102e19190612127565b610bd9565b005b3480156102f457600080fd5b5061030f600480360381019061030a919061217a565b610c87565b005b34801561031d57600080fd5b5061033860048036038101906103339190611d2d565b61108b565b60405161034b97969594939291906121c9565b60405180910390f35b34801561036057600080fd5b5061037b60048036038101906103769190611d2d565b61113a565b6040516103889190611d9f565b60405180910390f35b6103ab60048036038101906103a69190611d2d565b61119d565b005b3480156103b957600080fd5b506103d460048036038101906103cf9190611d2d565b6115eb565b005b3480156103e257600080fd5b506103fd60048036038101906103f89190612080565b6119a9565b005b6000806002600084815260200190815260200160002090508060050160149054906101000a900460ff16915050919050565b6000806002600084815260200190815260200160002090508060020154915050919050565b6060806000805b60015481101561066a578473ffffffffffffffffffffffffffffffffffffffff166002600083815260200190815260200160002060050160009054906101000a900473ffffffffffffffffffffffffffffffffffffffff1673ffffffffffffffffffffffffffffffffffffffff16141561065757600260008281526020019081526020016000206040518060e0016040529081600082015481526020016001820160009054906101000a900473ffffffffffffffffffffffffffffffffffffffff1673ffffffffffffffffffffffffffffffffffffffff1673ffffffffffffffffffffffffffffffffffffffff16815260200160028201548152602001600382015481526020016004820160009054906101000a900473ffffffffffffffffffffffffffffffffffffffff1673ffffffffffffffffffffffffffffffffffffffff1673ffffffffffffffffffffffffffffffffffffffff1681526020016005820160009054906101000a900473ffffffffffffffffffffffffffffffffffffffff1673ffffffffffffffffffffffffffffffffffffffff1673ffffffffffffffffffffffffffffffffffffffff1681526020016005820160149054906101000a900460ff16151515158152505083838151811061063d5761063c612238565b5b6020026020010181905250818061065390612296565b9250505b808061066290612296565b91505061045d565b508082528192505050919050565b60006002600083815260200190815260200160002090508060050160009054906101000a900473ffffffffffffffffffffffffffffffffffffffff1673ffffffffffffffffffffffffffffffffffffffff163373ffffffffffffffffffffffffffffffffffffffff1614610721576040517f08c379a000000000000000000000000000000000000000000000000000000000815260040161071890612362565b60405180910390fd5b8060010160009054906101000a900473ffffffffffffffffffffffffffffffffffffffff1673ffffffffffffffffffffffffffffffffffffffff1663095ea7b33083600201546040518363ffffffff1660e01b8152600401610784929190612382565b600060405180830381600087803b15801561079e57600080fd5b505af11580156107b2573d6000803e3d6000fd5b505050505050565b3373ffffffffffffffffffffffffffffffffffffffff168373ffffffffffffffffffffffffffffffffffffffff16636352211e846040518263ffffffff1660e01b815260040161080a9190611d9f565b60206040518083038186803b15801561082257600080fd5b505afa158015610836573d6000803e3d6000fd5b505050506040513d601f19601f8201168201806040525081019061085a91906123c0565b73ffffffffffffffffffffffffffffffffffffffff16146108b0576040517f08c379a00000000000000000000000000000000000000000000000000000000081526004016108a790612439565b60405180910390fd5b8273ffffffffffffffffffffffffffffffffffffffff1663095ea7b330846040518363ffffffff1660e01b81526004016108eb929190612382565b600060405180830381600087803b15801561090557600080fd5b505af1158015610919573d6000803e3d6000fd5b505050506001600081548092919061093090612296565b91905055506040518060e0016040528060015481526020018473ffffffffffffffffffffffffffffffffffffffff1681526020018381526020018281526020013373ffffffffffffffffffffffffffffffffffffffff168152602001600073ffffffffffffffffffffffffffffffffffffffff168152602001600015158152506002600060015481526020019081526020016000206000820151816000015560208201518160010160006101000a81548173ffffffffffffffffffffffffffffffffffffffff021916908373ffffffffffffffffffffffffffffffffffffffff160217905550604082015181600201556060820151816003015560808201518160040160006101000a81548173ffffffffffffffffffffffffffffffffffffffff021916908373ffffffffffffffffffffffffffffffffffffffff16021790555060a08201518160050160006101000a81548173ffffffffffffffffffffffffffffffffffffffff021916908373ffffffffffffffffffffffffffffffffffffffff16021790555060c08201518160050160146101000a81548160ff0219169083151502179055509050503373ffffffffffffffffffffffffffffffffffffffff168373ffffffffffffffffffffffffffffffffffffffff167f655a0cf9c8db81512be9a76dc1c5ae5380b8816ce6ad659cd61b715e2999d59a6001548585604051610b3e93929190612459565b60405180910390a3505050565b60006002600083815260200190815260200160002060050160009054906101000a900473ffffffffffffffffffffffffffffffffffffffff169050919050565b7f000000000000000000000000000000000000000000000000000000000000000081565b60015481565b7f000000000000000000000000000000000000000000000000000000000000000081565b60006002600085815260200190815260200160002090508060010160009054906101000a900473ffffffffffffffffffffffffffffffffffffffff1673ffffffffffffffffffffffffffffffffffffffff1663095ea7b384846040518363ffffffff1660e01b8152600401610c4f929190612382565b600060405180830381600087803b158015610c6957600080fd5b505af1158015610c7d573d6000803e3d6000fd5b5050505050505050565b610c8f611c98565b60006002600084815260200190815260200160002090503373ffffffffffffffffffffffffffffffffffffffff168160010160009054906101000a900473ffffffffffffffffffffffffffffffffffffffff1673ffffffffffffffffffffffffffffffffffffffff16636352211e83600201546040518263ffffffff1660e01b8152600401610d1e9190611d9f565b60206040518083038186803b158015610d3657600080fd5b505afa158015610d4a573d6000803e3d6000fd5b505050506040513d601f19601f82011682018060405250810190610d6e91906123c0565b73ffffffffffffffffffffffffffffffffffffffff1614610dc4576040517f08c379a0000000000000000000000000000000000000000000000000000000008152600401610dbb906124dc565b60405180910390fd5b3373ffffffffffffffffffffffffffffffffffffffff168160050160009054906101000a900473ffffffffffffffffffffffffffffffffffffffff1673ffffffffffffffffffffffffffffffffffffffff1614610e56576040517f08c379a0000000000000000000000000000000000000000000000000000000008152600401610e4d9061256e565b60405180910390fd5b8060050160149054906101000a900460ff16610ea7576040517f08c379a0000000000000000000000000000000000000000000000000000000008152600401610e9e906125da565b60405180910390fd5b8060010160009054906101000a900473ffffffffffffffffffffffffffffffffffffffff1673ffffffffffffffffffffffffffffffffffffffff166323b872dd333084600201546040518463ffffffff1660e01b8152600401610f0c939291906125fa565b600060405180830381600087803b158015610f2657600080fd5b505af1158015610f3a573d6000803e3d6000fd5b5050505081816003018190555060008160050160146101000a81548160ff021916908315150217905550338160040160006101000a81548173ffffffffffffffffffffffffffffffffffffffff021916908373ffffffffffffffffffffffffffffffffffffffff16021790555060008160050160006101000a81548173ffffffffffffffffffffffffffffffffffffffff021916908373ffffffffffffffffffffffffffffffffffffffff1602179055503373ffffffffffffffffffffffffffffffffffffffff168160010160009054906101000a900473ffffffffffffffffffffffffffffffffffffffff1673ffffffffffffffffffffffffffffffffffffffff167f655a0cf9c8db81512be9a76dc1c5ae5380b8816ce6ad659cd61b715e2999d59a60015484600201548660405161107693929190612459565b60405180910390a350611087611ce8565b5050565b60026020528060005260406000206000915090508060000154908060010160009054906101000a900473ffffffffffffffffffffffffffffffffffffffff16908060020154908060030154908060040160009054906101000a900473ffffffffffffffffffffffffffffffffffffffff16908060050160009054906101000a900473ffffffffffffffffffffffffffffffffffffffff16908060050160149054906101000a900460ff16905087565b600060647f0000000000000000000000000000000000000000000000000000000000000000606461116b9190612631565b600260008581526020019081526020016000206003015461118c9190612687565b6111969190612710565b9050919050565b6111a5611c98565b60006111b08261113a565b905060006002600084815260200190815260200160002090507390f79bf6eb2c4f870365e785982e1f101e93b90673ffffffffffffffffffffffffffffffffffffffff163373ffffffffffffffffffffffffffffffffffffffff16141561124c576040517f08c379a00000000000000000000000000000000000000000000000000000000081526004016112439061278d565b60405180910390fd5b60008311801561125e57506001548311155b61129d576040517f08c379a0000000000000000000000000000000000000000000000000000000008152600401611294906127f9565b60405180910390fd5b813410156112e0576040517f08c379a00000000000000000000000000000000000000000000000000000000081526004016112d79061288b565b60405180910390fd5b8060050160149054906101000a900460ff1615611332576040517f08c379a0000000000000000000000000000000000000000000000000000000008152600401611329906128f7565b60405180910390fd5b8060040160009054906101000a900473ffffffffffffffffffffffffffffffffffffffff1673ffffffffffffffffffffffffffffffffffffffff166108fc82600301549081150290604051600060405180830381858888f193505050501580156113a0573d6000803e3d6000fd5b507f000000000000000000000000000000000000000000000000000000000000000073ffffffffffffffffffffffffffffffffffffffff166108fc8260030154846113eb9190612917565b9081150290604051600060405180830381858888f19350505050158015611416573d6000803e3d6000fd5b5060018160050160146101000a81548160ff0219169083151502179055508060010160009054906101000a900473ffffffffffffffffffffffffffffffffffffffff1673ffffffffffffffffffffffffffffffffffffffff166323b872dd303384600201546040518463ffffffff1660e01b8152600401611499939291906125fa565b600060405180830381600087803b1580156114b357600080fd5b505af11580156114c7573d6000803e3d6000fd5b50505050338160050160006101000a81548173ffffffffffffffffffffffffffffffffffffffff021916908373ffffffffffffffffffffffffffffffffffffffff1602179055503373ffffffffffffffffffffffffffffffffffffffff168160040160009054906101000a900473ffffffffffffffffffffffffffffffffffffffff1673ffffffffffffffffffffffffffffffffffffffff168260010160009054906101000a900473ffffffffffffffffffffffffffffffffffffffff1673ffffffffffffffffffffffffffffffffffffffff167f8b4c9c8a607d67b321582dd8461041b1dc2ceeca70c8b7f37f8e02095cf2e76d86856002015486600301546040516115d693929190612459565b60405180910390a450506115e8611ce8565b50565b6115f3611c98565b600060026000838152602001908152602001600020905060008211801561161c57506001548211155b61165b576040517f08c379a0000000000000000000000000000000000000000000000000000000008152600401611652906127f9565b60405180910390fd5b7390f79bf6eb2c4f870365e785982e1f101e93b90673ffffffffffffffffffffffffffffffffffffffff163373ffffffffffffffffffffffffffffffffffffffff1614156116de576040517f08c379a00000000000000000000000000000000000000000000000000000000081526004016116d59061278d565b60405180910390fd5b8060050160149054906101000a900460ff1615611730576040517f08c379a0000000000000000000000000000000000000000000000000000000008152600401611727906128f7565b60405180910390fd5b7390f79bf6eb2c4f870365e785982e1f101e93b90673ffffffffffffffffffffffffffffffffffffffff168160040160009054906101000a900473ffffffffffffffffffffffffffffffffffffffff1673ffffffffffffffffffffffffffffffffffffffff16146117d6576040517f08c379a00000000000000000000000000000000000000000000000000000000081526004016117cd906129bd565b60405180910390fd5b60018160050160146101000a81548160ff0219169083151502179055508060010160009054906101000a900473ffffffffffffffffffffffffffffffffffffffff1673ffffffffffffffffffffffffffffffffffffffff166323b872dd303384600201546040518463ffffffff1660e01b8152600401611858939291906125fa565b600060405180830381600087803b15801561187257600080fd5b505af1158015611886573d6000803e3d6000fd5b50505050338160050160006101000a81548173ffffffffffffffffffffffffffffffffffffffff021916908373ffffffffffffffffffffffffffffffffffffffff1602179055503373ffffffffffffffffffffffffffffffffffffffff168160040160009054906101000a900473ffffffffffffffffffffffffffffffffffffffff1673ffffffffffffffffffffffffffffffffffffffff168260010160009054906101000a900473ffffffffffffffffffffffffffffffffffffffff1673ffffffffffffffffffffffffffffffffffffffff167f8b4c9c8a607d67b321582dd8461041b1dc2ceeca70c8b7f37f8e02095cf2e76d858560020154866003015460405161199593929190612459565b60405180910390a4506119a6611ce8565b50565b6119b1611c98565b600081116119f4576040517f08c379a00000000000000000000000000000000000000000000000000000000081526004016119eb90612a29565b60405180910390fd5b60016000815480929190611a0790612296565b91905055508273ffffffffffffffffffffffffffffffffffffffff166323b872dd3330856040518463ffffffff1660e01b8152600401611a49939291906125fa565b600060405180830381600087803b158015611a6357600080fd5b505af1158015611a77573d6000803e3d6000fd5b505050506040518060e0016040528060015481526020018473ffffffffffffffffffffffffffffffffffffffff1681526020018381526020018281526020013373ffffffffffffffffffffffffffffffffffffffff1681526020013373ffffffffffffffffffffffffffffffffffffffff168152602001600015158152506002600060015481526020019081526020016000206000820151816000015560208201518160010160006101000a81548173ffffffffffffffffffffffffffffffffffffffff021916908373ffffffffffffffffffffffffffffffffffffffff160217905550604082015181600201556060820151816003015560808201518160040160006101000a81548173ffffffffffffffffffffffffffffffffffffffff021916908373ffffffffffffffffffffffffffffffffffffffff16021790555060a08201518160050160006101000a81548173ffffffffffffffffffffffffffffffffffffffff021916908373ffffffffffffffffffffffffffffffffffffffff16021790555060c08201518160050160146101000a81548160ff0219169083151502179055509050503373ffffffffffffffffffffffffffffffffffffffff168373ffffffffffffffffffffffffffffffffffffffff167f655a0cf9c8db81512be9a76dc1c5ae5380b8816ce6ad659cd61b715e2999d59a6001548585604051611c8393929190612459565b60405180910390a3611c93611ce8565b505050565b60026000541415611cde576040517f08c379a0000000000000000000000000000000000000000000000000000000008152600401611cd590612a95565b60405180910390fd5b6002600081905550565b6001600081905550565b600080fd5b6000819050919050565b611d0a81611cf7565b8114611d1557600080fd5b50565b600081359050611d2781611d01565b92915050565b600060208284031215611d4357611d42611cf2565b5b6000611d5184828501611d18565b91505092915050565b60008115159050919050565b611d6f81611d5a565b82525050565b6000602082019050611d8a6000830184611d66565b92915050565b611d9981611cf7565b82525050565b6000602082019050611db46000830184611d90565b92915050565b600073ffffffffffffffffffffffffffffffffffffffff82169050919050565b6000611de582611dba565b9050919050565b611df581611dda565b8114611e0057600080fd5b50565b600081359050611e1281611dec565b92915050565b600060208284031215611e2e57611e2d611cf2565b5b6000611e3c84828501611e03565b91505092915050565b600081519050919050565b600082825260208201905092915050565b6000819050602082019050919050565b611e7a81611cf7565b82525050565b6000819050919050565b6000611ea5611ea0611e9b84611dba565b611e80565b611dba565b9050919050565b6000611eb782611e8a565b9050919050565b6000611ec982611eac565b9050919050565b611ed981611ebe565b82525050565b6000611eea82611dba565b9050919050565b611efa81611edf565b82525050565b611f0981611d5a565b82525050565b60e082016000820151611f256000850182611e71565b506020820151611f386020850182611ed0565b506040820151611f4b6040850182611e71565b506060820151611f5e6060850182611e71565b506080820151611f716080850182611ef1565b5060a0820151611f8460a0850182611ef1565b5060c0820151611f9760c0850182611f00565b50505050565b6000611fa98383611f0f565b60e08301905092915050565b6000602082019050919050565b6000611fcd82611e45565b611fd78185611e50565b9350611fe283611e61565b8060005b83811015612013578151611ffa8882611f9d565b975061200583611fb5565b925050600181019050611fe6565b5085935050505092915050565b6000602082019050818103600083015261203a8184611fc2565b905092915050565b600061204d82611dda565b9050919050565b61205d81612042565b811461206857600080fd5b50565b60008135905061207a81612054565b92915050565b60008060006060848603121561209957612098611cf2565b5b60006120a78682870161206b565b93505060206120b886828701611d18565b92505060406120c986828701611d18565b9150509250925092565b6120dc81611dda565b82525050565b60006020820190506120f760008301846120d3565b92915050565b61210681611edf565b82525050565b600060208201905061212160008301846120fd565b92915050565b6000806000606084860312156121405761213f611cf2565b5b600061214e86828701611d18565b935050602061215f86828701611e03565b925050604061217086828701611d18565b9150509250925092565b6000806040838503121561219157612190611cf2565b5b600061219f85828601611d18565b92505060206121b085828601611d18565b9150509250929050565b6121c381611ebe565b82525050565b600060e0820190506121de600083018a611d90565b6121eb60208301896121ba565b6121f86040830188611d90565b6122056060830187611d90565b61221260808301866120fd565b61221f60a08301856120fd565b61222c60c0830184611d66565b98975050505050505050565b7f4e487b7100000000000000000000000000000000000000000000000000000000600052603260045260246000fd5b7f4e487b7100000000000000000000000000000000000000000000000000000000600052601160045260246000fd5b60006122a182611cf7565b91507fffffffffffffffffffffffffffffffffffffffffffffffffffffffffffffffff8214156122d4576122d3612267565b5b600182019050919050565b600082825260208201905092915050565b7f4f6e6c7920746865206f776e65722063616e20617070726f766520746865206d60008201527f61726b6574706c61636500000000000000000000000000000000000000000000602082015250565b600061234c602a836122df565b9150612357826122f0565b604082019050919050565b6000602082019050818103600083015261237b8161233f565b9050919050565b600060408201905061239760008301856120d3565b6123a46020830184611d90565b9392505050565b6000815190506123ba81611dec565b92915050565b6000602082840312156123d6576123d5611cf2565b5b60006123e4848285016123ab565b91505092915050565b7f596f7520646f206e6f74206f776e207468697320746f6b656e00000000000000600082015250565b60006124236019836122df565b915061242e826123ed565b602082019050919050565b6000602082019050818103600083015261245281612416565b9050919050565b600060608201905061246e6000830186611d90565b61247b6020830185611d90565b6124886040830184611d90565b949350505050565b7f596f7520617265206e6f7420746865206f776e6572206f6620746865204e4654600082015250565b60006124c66020836122df565b91506124d182612490565b602082019050919050565b600060208201905081810360008301526124f5816124b9565b9050919050565b7f4f6e6c7920746865206f776e65722063616e20726573656c6c2074686520697460008201527f656d000000000000000000000000000000000000000000000000000000000000602082015250565b60006125586022836122df565b9150612563826124fc565b604082019050919050565b600060208201905081810360008301526125878161254b565b9050919050565b7f4974656d206e6f7420736f6c6400000000000000000000000000000000000000600082015250565b60006125c4600d836122df565b91506125cf8261258e565b602082019050919050565b600060208201905081810360008301526125f3816125b7565b9050919050565b600060608201905061260f60008301866120d3565b61261c60208301856120d3565b6126296040830184611d90565b949350505050565b600061263c82611cf7565b915061264783611cf7565b9250827fffffffffffffffffffffffffffffffffffffffffffffffffffffffffffffffff0382111561267c5761267b612267565b5b828201905092915050565b600061269282611cf7565b915061269d83611cf7565b9250817fffffffffffffffffffffffffffffffffffffffffffffffffffffffffffffffff04831182151516156126d6576126d5612267565b5b828202905092915050565b7f4e487b7100000000000000000000000000000000000000000000000000000000600052601260045260246000fd5b600061271b82611cf7565b915061272683611cf7565b925082612736576127356126e1565b5b828204905092915050565b7f796f75206172652061646d696e206f6620746869732070616765000000000000600082015250565b6000612777601a836122df565b915061278282612741565b602082019050919050565b600060208201905081810360008301526127a68161276a565b9050919050565b7f6974656d20646f65736e27742065786973740000000000000000000000000000600082015250565b60006127e36012836122df565b91506127ee826127ad565b602082019050919050565b60006020820190508181036000830152612812816127d6565b9050919050565b7f6e6f7420656e6f75676820657468657220746f20636f766572206974656d207060008201527f7269636520616e64206d61726b65742066656500000000000000000000000000602082015250565b60006128756033836122df565b915061288082612819565b604082019050919050565b600060208201905081810360008301526128a481612868565b9050919050565b7f6974656d20616c726561647920736f6c64000000000000000000000000000000600082015250565b60006128e16011836122df565b91506128ec826128ab565b602082019050919050565b60006020820190508181036000830152612910816128d4565b9050919050565b600061292282611cf7565b915061292d83611cf7565b9250828210156129405761293f612267565b5b828203905092915050565b7f6974656d206973206e6f74206f776e656420627920746865206669786564206160008201527f63636f756e740000000000000000000000000000000000000000000000000000602082015250565b60006129a76026836122df565b91506129b28261294b565b604082019050919050565b600060208201905081810360008301526129d68161299a565b9050919050565b7f5072696365206d7573742062652067726561746572207468616e207a65726f00600082015250565b6000612a13601f836122df565b9150612a1e826129dd565b602082019050919050565b60006020820190508181036000830152612a4281612a06565b9050919050565b7f5265656e7472616e637947756172643a207265656e7472616e742063616c6c00600082015250565b6000612a7f601f836122df565b9150612a8a82612a49565b602082019050919050565b60006020820190508181036000830152612aae81612a72565b905091905056fea2646970667358221220ac4778d28e18ca5a25f1989c57a8f61ebcf94d6fe052ebacfc339b87f042722764736f6c63430008090033",
  "linkReferences": {},
  "deployedLinkReferences": {}
}