{
  "_format": "hh-sol-artifact-1",
  "contractName": "Marketplace",
  "sourceName": "src/backend/contracts/Marketplace.sol",
  "abi": [
    {
      "inputs": [
        {
          "internalType": "uint256",
          "name": "_feePercent",
          "type": "uint256"
        }
      ],
      "stateMutability": "nonpayable",
      "type": "constructor"
    },
    {
      "anonymous": false,
      "inputs": [
        {
          "indexed": false,
          "internalType": "uint256",
          "name": "itemId",
          "type": "uint256"
        },
        {
          "indexed": true,
          "internalType": "address",
          "name": "nft",
          "type": "address"
        },
        {
          "indexed": false,
          "internalType": "uint256",
          "name": "tokenId",
          "type": "uint256"
        },
        {
          "indexed": false,
          "internalType": "uint256",
          "name": "price",
          "type": "uint256"
        },
        {
          "indexed": true,
          "internalType": "address",
          "name": "seller",
          "type": "address"
        },
        {
          "indexed": true,
          "internalType": "address",
          "name": "buyer",
          "type": "address"
        }
      ],
      "name": "Bought",
      "type": "event"
    },
    {
      "anonymous": false,
      "inputs": [
        {
          "indexed": false,
          "internalType": "uint256",
          "name": "itemId",
          "type": "uint256"
        },
        {
          "indexed": true,
          "internalType": "address",
          "name": "nft",
          "type": "address"
        },
        {
          "indexed": false,
          "internalType": "uint256",
          "name": "tokenId",
          "type": "uint256"
        },
        {
          "indexed": false,
          "internalType": "uint256",
          "name": "price",
          "type": "uint256"
        },
        {
          "indexed": true,
          "internalType": "address",
          "name": "owner",
          "type": "address"
        }
      ],
      "name": "Offered",
      "type": "event"
    },
    {
      "inputs": [
        {
          "internalType": "uint256",
          "name": "_itemId",
          "type": "uint256"
        }
      ],
      "name": "claimFromFixedAccount",
      "outputs": [],
      "stateMutability": "nonpayable",
      "type": "function"
    },
    {
      "inputs": [],
      "name": "feeAccount",
      "outputs": [
        {
          "internalType": "address payable",
          "name": "",
          "type": "address"
        }
      ],
      "stateMutability": "view",
      "type": "function"
    },
    {
      "inputs": [],
      "name": "feePercent",
      "outputs": [
        {
          "internalType": "uint256",
          "name": "",
          "type": "uint256"
        }
      ],
      "stateMutability": "view",
      "type": "function"
    },
    {
      "inputs": [
        {
          "internalType": "uint256",
          "name": "_itemId",
          "type": "uint256"
        }
      ],
      "name": "getTotalPrice",
      "outputs": [
        {
          "internalType": "uint256",
          "name": "",
          "type": "uint256"
        }
      ],
      "stateMutability": "view",
      "type": "function"
    },
    {
      "inputs": [],
      "name": "itemCount",
      "outputs": [
        {
          "internalType": "uint256",
          "name": "",
          "type": "uint256"
        }
      ],
      "stateMutability": "view",
      "type": "function"
    },
    {
      "inputs": [
        {
          "internalType": "uint256",
          "name": "",
          "type": "uint256"
        }
      ],
      "name": "items",
      "outputs": [
        {
          "internalType": "uint256",
          "name": "itemId",
          "type": "uint256"
        },
        {
          "internalType": "contract IERC721",
          "name": "nft",
          "type": "address"
        },
        {
          "internalType": "uint256",
          "name": "tokenId",
          "type": "uint256"
        },
        {
          "internalType": "uint256",
          "name": "price",
          "type": "uint256"
        },
        {
          "internalType": "address payable",
          "name": "seller",
          "type": "address"
        },
        {
          "internalType": "address payable",
          "name": "owner",
          "type": "address"
        },
        {
          "internalType": "bool",
          "name": "sold",
          "type": "bool"
        }
      ],
      "stateMutability": "view",
      "type": "function"
    },
    {
      "inputs": [
        {
          "internalType": "contract IERC721",
          "name": "_nft",
          "type": "address"
        },
        {
          "internalType": "uint256",
          "name": "_tokenId",
          "type": "uint256"
        },
        {
          "internalType": "uint256",
          "name": "_price",
          "type": "uint256"
        }
      ],
      "name": "makeItem",
      "outputs": [],
      "stateMutability": "nonpayable",
      "type": "function"
    },
    {
      "inputs": [
        {
          "internalType": "uint256",
          "name": "_itemId",
          "type": "uint256"
        }
      ],
      "name": "purchaseItem",
      "outputs": [],
      "stateMutability": "payable",
      "type": "function"
    }
  ],
  "bytecode": "0x60c06040523480156200001157600080fd5b5060405162001806380380620018068339818101604052810190620000379190620000c2565b60016000819055503373ffffffffffffffffffffffffffffffffffffffff1660808173ffffffffffffffffffffffffffffffffffffffff16815250508060a0818152505050620000f4565b600080fd5b6000819050919050565b6200009c8162000087565b8114620000a857600080fd5b50565b600081519050620000bc8162000091565b92915050565b600060208284031215620000db57620000da62000082565b5b6000620000eb84828501620000ab565b91505092915050565b60805160a0516116de620001286000396000818161021b01526102f20152600081816101f1015261055501526116de6000f3fe60806040526004361061007b5760003560e01c8063ca7dd3751161004e578063ca7dd37514610144578063d38ea5bf14610181578063f55603d81461019d578063fa00afc7146101c65761007b565b806365e17c9d146100805780636bfb0d01146100ab5780637fd6f15c146100d6578063bfb231d214610101575b600080fd5b34801561008c57600080fd5b506100956101ef565b6040516100a29190610ee5565b60405180910390f35b3480156100b757600080fd5b506100c0610213565b6040516100cd9190610f19565b60405180910390f35b3480156100e257600080fd5b506100eb610219565b6040516100f89190610f19565b60405180910390f35b34801561010d57600080fd5b5061012860048036038101906101239190610f65565b61023d565b60405161013b979695949392919061100c565b60405180910390f35b34801561015057600080fd5b5061016b60048036038101906101669190610f65565b6102ec565b6040516101789190610f19565b60405180910390f35b61019b60048036038101906101969190610f65565b61034f565b005b3480156101a957600080fd5b506101c460048036038101906101bf9190610f65565b61079d565b005b3480156101d257600080fd5b506101ed60048036038101906101e891906110cb565b610b5b565b005b7f000000000000000000000000000000000000000000000000000000000000000081565b60015481565b7f000000000000000000000000000000000000000000000000000000000000000081565b60026020528060005260406000206000915090508060000154908060010160009054906101000a900473ffffffffffffffffffffffffffffffffffffffff16908060020154908060030154908060040160009054906101000a900473ffffffffffffffffffffffffffffffffffffffff16908060050160009054906101000a900473ffffffffffffffffffffffffffffffffffffffff16908060050160149054906101000a900460ff16905087565b600060647f0000000000000000000000000000000000000000000000000000000000000000606461031d919061114d565b600260008581526020019081526020016000206003015461033e91906111a3565b610348919061122c565b9050919050565b610357610e4a565b6000610362826102ec565b9050600060026000848152602001908152602001600020905060008311801561038d57506001548311155b6103cc576040517f08c379a00000000000000000000000000000000000000000000000000000000081526004016103c3906112ba565b60405180910390fd5b7390f79bf6eb2c4f870365e785982e1f101e93b90673ffffffffffffffffffffffffffffffffffffffff163373ffffffffffffffffffffffffffffffffffffffff16141561044f576040517f08c379a000000000000000000000000000000000000000000000000000000000815260040161044690611326565b60405180910390fd5b81341015610492576040517f08c379a0000000000000000000000000000000000000000000000000000000008152600401610489906113b8565b60405180910390fd5b8060050160149054906101000a900460ff16156104e4576040517f08c379a00000000000000000000000000000000000000000000000000000000081526004016104db90611424565b60405180910390fd5b8060040160009054906101000a900473ffffffffffffffffffffffffffffffffffffffff1673ffffffffffffffffffffffffffffffffffffffff166108fc82600301549081150290604051600060405180830381858888f19350505050158015610552573d6000803e3d6000fd5b507f000000000000000000000000000000000000000000000000000000000000000073ffffffffffffffffffffffffffffffffffffffff166108fc82600301548461059d9190611444565b9081150290604051600060405180830381858888f193505050501580156105c8573d6000803e3d6000fd5b5060018160050160146101000a81548160ff0219169083151502179055508060010160009054906101000a900473ffffffffffffffffffffffffffffffffffffffff1673ffffffffffffffffffffffffffffffffffffffff166323b872dd303384600201546040518463ffffffff1660e01b815260040161064b93929190611487565b600060405180830381600087803b15801561066557600080fd5b505af1158015610679573d6000803e3d6000fd5b50505050338160050160006101000a81548173ffffffffffffffffffffffffffffffffffffffff021916908373ffffffffffffffffffffffffffffffffffffffff1602179055503373ffffffffffffffffffffffffffffffffffffffff168160040160009054906101000a900473ffffffffffffffffffffffffffffffffffffffff1673ffffffffffffffffffffffffffffffffffffffff168260010160009054906101000a900473ffffffffffffffffffffffffffffffffffffffff1673ffffffffffffffffffffffffffffffffffffffff167f8b4c9c8a607d67b321582dd8461041b1dc2ceeca70c8b7f37f8e02095cf2e76d8685600201548660030154604051610788939291906114be565b60405180910390a4505061079a610e9a565b50565b6107a5610e4a565b60006002600083815260200190815260200160002090506000821180156107ce57506001548211155b61080d576040517f08c379a0000000000000000000000000000000000000000000000000000000008152600401610804906112ba565b60405180910390fd5b7390f79bf6eb2c4f870365e785982e1f101e93b90673ffffffffffffffffffffffffffffffffffffffff163373ffffffffffffffffffffffffffffffffffffffff161415610890576040517f08c379a000000000000000000000000000000000000000000000000000000000815260040161088790611326565b60405180910390fd5b8060050160149054906101000a900460ff16156108e2576040517f08c379a00000000000000000000000000000000000000000000000000000000081526004016108d990611424565b60405180910390fd5b7390f79bf6eb2c4f870365e785982e1f101e93b90673ffffffffffffffffffffffffffffffffffffffff168160040160009054906101000a900473ffffffffffffffffffffffffffffffffffffffff1673ffffffffffffffffffffffffffffffffffffffff1614610988576040517f08c379a000000000000000000000000000000000000000000000000000000000815260040161097f90611567565b60405180910390fd5b60018160050160146101000a81548160ff0219169083151502179055508060010160009054906101000a900473ffffffffffffffffffffffffffffffffffffffff1673ffffffffffffffffffffffffffffffffffffffff166323b872dd303384600201546040518463ffffffff1660e01b8152600401610a0a93929190611487565b600060405180830381600087803b158015610a2457600080fd5b505af1158015610a38573d6000803e3d6000fd5b50505050338160050160006101000a81548173ffffffffffffffffffffffffffffffffffffffff021916908373ffffffffffffffffffffffffffffffffffffffff1602179055503373ffffffffffffffffffffffffffffffffffffffff168160040160009054906101000a900473ffffffffffffffffffffffffffffffffffffffff1673ffffffffffffffffffffffffffffffffffffffff168260010160009054906101000a900473ffffffffffffffffffffffffffffffffffffffff1673ffffffffffffffffffffffffffffffffffffffff167f8b4c9c8a607d67b321582dd8461041b1dc2ceeca70c8b7f37f8e02095cf2e76d8585600201548660030154604051610b47939291906114be565b60405180910390a450610b58610e9a565b50565b610b63610e4a565b60008111610ba6576040517f08c379a0000000000000000000000000000000000000000000000000000000008152600401610b9d906115d3565b60405180910390fd5b60016000815480929190610bb9906115f3565b91905055508273ffffffffffffffffffffffffffffffffffffffff166323b872dd3330856040518463ffffffff1660e01b8152600401610bfb93929190611487565b600060405180830381600087803b158015610c1557600080fd5b505af1158015610c29573d6000803e3d6000fd5b505050506040518060e0016040528060015481526020018473ffffffffffffffffffffffffffffffffffffffff1681526020018381526020018281526020013373ffffffffffffffffffffffffffffffffffffffff1681526020013373ffffffffffffffffffffffffffffffffffffffff168152602001600015158152506002600060015481526020019081526020016000206000820151816000015560208201518160010160006101000a81548173ffffffffffffffffffffffffffffffffffffffff021916908373ffffffffffffffffffffffffffffffffffffffff160217905550604082015181600201556060820151816003015560808201518160040160006101000a81548173ffffffffffffffffffffffffffffffffffffffff021916908373ffffffffffffffffffffffffffffffffffffffff16021790555060a08201518160050160006101000a81548173ffffffffffffffffffffffffffffffffffffffff021916908373ffffffffffffffffffffffffffffffffffffffff16021790555060c08201518160050160146101000a81548160ff0219169083151502179055509050503373ffffffffffffffffffffffffffffffffffffffff168373ffffffffffffffffffffffffffffffffffffffff167f655a0cf9c8db81512be9a76dc1c5ae5380b8816ce6ad659cd61b715e2999d59a6001548585604051610e35939291906114be565b60405180910390a3610e45610e9a565b505050565b60026000541415610e90576040517f08c379a0000000000000000000000000000000000000000000000000000000008152600401610e8790611688565b60405180910390fd5b6002600081905550565b6001600081905550565b600073ffffffffffffffffffffffffffffffffffffffff82169050919050565b6000610ecf82610ea4565b9050919050565b610edf81610ec4565b82525050565b6000602082019050610efa6000830184610ed6565b92915050565b6000819050919050565b610f1381610f00565b82525050565b6000602082019050610f2e6000830184610f0a565b92915050565b600080fd5b610f4281610f00565b8114610f4d57600080fd5b50565b600081359050610f5f81610f39565b92915050565b600060208284031215610f7b57610f7a610f34565b5b6000610f8984828501610f50565b91505092915050565b6000819050919050565b6000610fb7610fb2610fad84610ea4565b610f92565b610ea4565b9050919050565b6000610fc982610f9c565b9050919050565b6000610fdb82610fbe565b9050919050565b610feb81610fd0565b82525050565b60008115159050919050565b61100681610ff1565b82525050565b600060e082019050611021600083018a610f0a565b61102e6020830189610fe2565b61103b6040830188610f0a565b6110486060830187610f0a565b6110556080830186610ed6565b61106260a0830185610ed6565b61106f60c0830184610ffd565b98975050505050505050565b600061108682610ea4565b9050919050565b60006110988261107b565b9050919050565b6110a88161108d565b81146110b357600080fd5b50565b6000813590506110c58161109f565b92915050565b6000806000606084860312156110e4576110e3610f34565b5b60006110f2868287016110b6565b935050602061110386828701610f50565b925050604061111486828701610f50565b9150509250925092565b7f4e487b7100000000000000000000000000000000000000000000000000000000600052601160045260246000fd5b600061115882610f00565b915061116383610f00565b9250827fffffffffffffffffffffffffffffffffffffffffffffffffffffffffffffffff038211156111985761119761111e565b5b828201905092915050565b60006111ae82610f00565b91506111b983610f00565b9250817fffffffffffffffffffffffffffffffffffffffffffffffffffffffffffffffff04831182151516156111f2576111f161111e565b5b828202905092915050565b7f4e487b7100000000000000000000000000000000000000000000000000000000600052601260045260246000fd5b600061123782610f00565b915061124283610f00565b925082611252576112516111fd565b5b828204905092915050565b600082825260208201905092915050565b7f6974656d20646f65736e27742065786973740000000000000000000000000000600082015250565b60006112a460128361125d565b91506112af8261126e565b602082019050919050565b600060208201905081810360008301526112d381611297565b9050919050565b7f796f75206172652061646d696e206f6620746869732070616765000000000000600082015250565b6000611310601a8361125d565b915061131b826112da565b602082019050919050565b6000602082019050818103600083015261133f81611303565b9050919050565b7f6e6f7420656e6f75676820657468657220746f20636f766572206974656d207060008201527f7269636520616e64206d61726b65742066656500000000000000000000000000602082015250565b60006113a260338361125d565b91506113ad82611346565b604082019050919050565b600060208201905081810360008301526113d181611395565b9050919050565b7f6974656d20616c726561647920736f6c64000000000000000000000000000000600082015250565b600061140e60118361125d565b9150611419826113d8565b602082019050919050565b6000602082019050818103600083015261143d81611401565b9050919050565b600061144f82610f00565b915061145a83610f00565b92508282101561146d5761146c61111e565b5b828203905092915050565b6114818161107b565b82525050565b600060608201905061149c6000830186611478565b6114a96020830185611478565b6114b66040830184610f0a565b949350505050565b60006060820190506114d36000830186610f0a565b6114e06020830185610f0a565b6114ed6040830184610f0a565b949350505050565b7f6974656d206973206e6f74206f776e656420627920746865206669786564206160008201527f63636f756e740000000000000000000000000000000000000000000000000000602082015250565b600061155160268361125d565b915061155c826114f5565b604082019050919050565b6000602082019050818103600083015261158081611544565b9050919050565b7f5072696365206d7573742062652067726561746572207468616e207a65726f00600082015250565b60006115bd601f8361125d565b91506115c882611587565b602082019050919050565b600060208201905081810360008301526115ec816115b0565b9050919050565b60006115fe82610f00565b91507fffffffffffffffffffffffffffffffffffffffffffffffffffffffffffffffff8214156116315761163061111e565b5b600182019050919050565b7f5265656e7472616e637947756172643a207265656e7472616e742063616c6c00600082015250565b6000611672601f8361125d565b915061167d8261163c565b602082019050919050565b600060208201905081810360008301526116a181611665565b905091905056fea2646970667358221220e1e2c4add71ce8d803218bde34f9ad1b587dcf81e472b1ba493d1c7593339c4464736f6c63430008090033",
  "linkReferences": {},
  "deployedLinkReferences": {}
}