{
  "_format": "hh-sol-artifact-1",
  "contractName": "Marketplace",
  "sourceName": "src/backend/contracts/Marketplace.sol",
  "abi": [
    {
      "inputs": [
        {
          "internalType": "uint256",
          "name": "_feePercent",
          "type": "uint256"
        }
      ],
      "stateMutability": "nonpayable",
      "type": "constructor"
    },
    {
      "anonymous": false,
      "inputs": [
        {
          "indexed": false,
          "internalType": "uint256",
          "name": "itemId",
          "type": "uint256"
        },
        {
          "indexed": true,
          "internalType": "address",
          "name": "nft",
          "type": "address"
        },
        {
          "indexed": false,
          "internalType": "uint256",
          "name": "tokenId",
          "type": "uint256"
        },
        {
          "indexed": false,
          "internalType": "uint256",
          "name": "price",
          "type": "uint256"
        },
        {
          "indexed": true,
          "internalType": "address",
          "name": "seller",
          "type": "address"
        },
        {
          "indexed": true,
          "internalType": "address",
          "name": "buyer",
          "type": "address"
        }
      ],
      "name": "Bought",
      "type": "event"
    },
    {
      "anonymous": false,
      "inputs": [
        {
          "indexed": false,
          "internalType": "uint256",
          "name": "itemId",
          "type": "uint256"
        },
        {
          "indexed": true,
          "internalType": "address",
          "name": "nft",
          "type": "address"
        },
        {
          "indexed": false,
          "internalType": "uint256",
          "name": "tokenId",
          "type": "uint256"
        },
        {
          "indexed": false,
          "internalType": "uint256",
          "name": "price",
          "type": "uint256"
        },
        {
          "indexed": true,
          "internalType": "address",
          "name": "owner",
          "type": "address"
        }
      ],
      "name": "Offered",
      "type": "event"
    },
    {
      "inputs": [
        {
          "internalType": "contract IERC721",
          "name": "_nft",
          "type": "address"
        },
        {
          "internalType": "uint256",
          "name": "_tokenId",
          "type": "uint256"
        },
        {
          "internalType": "uint256",
          "name": "_price",
          "type": "uint256"
        }
      ],
      "name": "Offer",
      "outputs": [],
      "stateMutability": "nonpayable",
      "type": "function"
    },
    {
      "inputs": [
        {
          "internalType": "uint256",
          "name": "itemId",
          "type": "uint256"
        },
        {
          "internalType": "address",
          "name": "to",
          "type": "address"
        },
        {
          "internalType": "uint256",
          "name": "tokenId",
          "type": "uint256"
        }
      ],
      "name": "approve",
      "outputs": [],
      "stateMutability": "nonpayable",
      "type": "function"
    },
    {
      "inputs": [
        {
          "internalType": "uint256",
          "name": "itemId",
          "type": "uint256"
        }
      ],
      "name": "approveMarketplace",
      "outputs": [],
      "stateMutability": "nonpayable",
      "type": "function"
    },
    {
      "inputs": [
        {
          "internalType": "uint256",
          "name": "_itemId",
          "type": "uint256"
        }
      ],
      "name": "claimFromFixedAccount",
      "outputs": [],
      "stateMutability": "nonpayable",
      "type": "function"
    },
    {
      "inputs": [],
      "name": "feeAccount",
      "outputs": [
        {
          "internalType": "address payable",
          "name": "",
          "type": "address"
        }
      ],
      "stateMutability": "view",
      "type": "function"
    },
    {
      "inputs": [],
      "name": "feePercent",
      "outputs": [
        {
          "internalType": "uint256",
          "name": "",
          "type": "uint256"
        }
      ],
      "stateMutability": "view",
      "type": "function"
    },
    {
      "inputs": [
        {
          "internalType": "address",
          "name": "owner",
          "type": "address"
        }
      ],
      "name": "getItemsByOwner",
      "outputs": [
        {
          "components": [
            {
              "internalType": "uint256",
              "name": "itemId",
              "type": "uint256"
            },
            {
              "internalType": "contract IERC721",
              "name": "nft",
              "type": "address"
            },
            {
              "internalType": "uint256",
              "name": "tokenId",
              "type": "uint256"
            },
            {
              "internalType": "uint256",
              "name": "price",
              "type": "uint256"
            },
            {
              "internalType": "address payable",
              "name": "seller",
              "type": "address"
            },
            {
              "internalType": "address payable",
              "name": "owner",
              "type": "address"
            },
            {
              "internalType": "bool",
              "name": "sold",
              "type": "bool"
            }
          ],
          "internalType": "struct Marketplace.Item[]",
          "name": "",
          "type": "tuple[]"
        }
      ],
      "stateMutability": "view",
      "type": "function"
    },
    {
      "inputs": [
        {
          "internalType": "uint256",
          "name": "itemId",
          "type": "uint256"
        }
      ],
      "name": "getTokenId",
      "outputs": [
        {
          "internalType": "uint256",
          "name": "",
          "type": "uint256"
        }
      ],
      "stateMutability": "view",
      "type": "function"
    },
    {
      "inputs": [
        {
          "internalType": "uint256",
          "name": "_itemId",
          "type": "uint256"
        }
      ],
      "name": "getTotalPrice",
      "outputs": [
        {
          "internalType": "uint256",
          "name": "",
          "type": "uint256"
        }
      ],
      "stateMutability": "view",
      "type": "function"
    },
    {
      "inputs": [
        {
          "internalType": "uint256",
          "name": "_itemId",
          "type": "uint256"
        }
      ],
      "name": "isSold",
      "outputs": [
        {
          "internalType": "bool",
          "name": "",
          "type": "bool"
        }
      ],
      "stateMutability": "view",
      "type": "function"
    },
    {
      "inputs": [],
      "name": "itemCount",
      "outputs": [
        {
          "internalType": "uint256",
          "name": "",
          "type": "uint256"
        }
      ],
      "stateMutability": "view",
      "type": "function"
    },
    {
      "inputs": [
        {
          "internalType": "uint256",
          "name": "",
          "type": "uint256"
        }
      ],
      "name": "items",
      "outputs": [
        {
          "internalType": "uint256",
          "name": "itemId",
          "type": "uint256"
        },
        {
          "internalType": "contract IERC721",
          "name": "nft",
          "type": "address"
        },
        {
          "internalType": "uint256",
          "name": "tokenId",
          "type": "uint256"
        },
        {
          "internalType": "uint256",
          "name": "price",
          "type": "uint256"
        },
        {
          "internalType": "address payable",
          "name": "seller",
          "type": "address"
        },
        {
          "internalType": "address payable",
          "name": "owner",
          "type": "address"
        },
        {
          "internalType": "bool",
          "name": "sold",
          "type": "bool"
        }
      ],
      "stateMutability": "view",
      "type": "function"
    },
    {
      "inputs": [
        {
          "internalType": "contract IERC721",
          "name": "_nft",
          "type": "address"
        },
        {
          "internalType": "uint256",
          "name": "_tokenId",
          "type": "uint256"
        },
        {
          "internalType": "uint256",
          "name": "_price",
          "type": "uint256"
        }
      ],
      "name": "makeItem",
      "outputs": [],
      "stateMutability": "nonpayable",
      "type": "function"
    },
    {
      "inputs": [
        {
          "internalType": "uint256",
          "name": "_itemId",
          "type": "uint256"
        }
      ],
      "name": "purchaseItem",
      "outputs": [],
      "stateMutability": "payable",
      "type": "function"
    },
    {
      "inputs": [
        {
          "internalType": "uint256",
          "name": "_itemId",
          "type": "uint256"
        },
        {
          "internalType": "uint256",
          "name": "_price",
          "type": "uint256"
        }
      ],
      "name": "reSell",
      "outputs": [],
      "stateMutability": "nonpayable",
      "type": "function"
    }
  ],
  "bytecode": "0x60c06040523480156200001157600080fd5b5060405162002b7038038062002b708339818101604052810190620000379190620000c2565b60016000819055503373ffffffffffffffffffffffffffffffffffffffff1660808173ffffffffffffffffffffffffffffffffffffffff16815250508060a0818152505050620000f4565b600080fd5b6000819050919050565b6200009c8162000087565b8114620000a857600080fd5b50565b600081519050620000bc8162000091565b92915050565b600060208284031215620000db57620000da62000082565b5b6000620000eb84828501620000ab565b91505092915050565b60805160a051612a486200012860003960008181610b2f01526110b8015260008181610b05015261131b0152612a486000f3fe6080604052600436106100e85760003560e01c80637fd6f15c1161008a578063ca7dd37511610059578063ca7dd3751461030c578063d38ea5bf14610349578063f55603d814610365578063fa00afc71461038e576100e8565b80637fd6f15c1461024c5780638cb0a51114610277578063b25d0edc146102a0578063bfb231d2146102c9576100e8565b80632eb50ef7116100c65780632eb50ef7146101a45780634a68fde1146101cd57806365e17c9d146101f65780636bfb0d0114610221576100e8565b80630110a176146100ed57806314ff5ea31461012a5780632c67a8e514610167575b600080fd5b3480156100f957600080fd5b50610114600480360381019061010f9190611ca5565b6103b7565b6040516101219190611ced565b60405180910390f35b34801561013657600080fd5b50610151600480360381019061014c9190611ca5565b6103e9565b60405161015e9190611d17565b60405180910390f35b34801561017357600080fd5b5061018e60048036038101906101899190611d90565b61040e565b60405161019b9190611f98565b60405180910390f35b3480156101b057600080fd5b506101cb60048036038101906101c69190611ca5565b610630565b005b3480156101d957600080fd5b506101f460048036038101906101ef9190611ff8565b610772565b005b34801561020257600080fd5b5061020b610b03565b604051610218919061205a565b60405180910390f35b34801561022d57600080fd5b50610236610b27565b6040516102439190611d17565b60405180910390f35b34801561025857600080fd5b50610261610b2d565b60405161026e9190611d17565b60405180910390f35b34801561028357600080fd5b5061029e60048036038101906102999190612075565b610b51565b005b3480156102ac57600080fd5b506102c760048036038101906102c291906120c8565b610bff565b005b3480156102d557600080fd5b506102f060048036038101906102eb9190611ca5565b611003565b6040516103039796959493929190612117565b60405180910390f35b34801561031857600080fd5b50610333600480360381019061032e9190611ca5565b6110b2565b6040516103409190611d17565b60405180910390f35b610363600480360381019061035e9190611ca5565b611115565b005b34801561037157600080fd5b5061038c60048036038101906103879190611ca5565b611563565b005b34801561039a57600080fd5b506103b560048036038101906103b09190611ff8565b611921565b005b6000806002600084815260200190815260200160002090508060050160149054906101000a900460ff16915050919050565b6000806002600084815260200190815260200160002090508060020154915050919050565b6060806000805b600154811015610622578473ffffffffffffffffffffffffffffffffffffffff166002600083815260200190815260200160002060050160009054906101000a900473ffffffffffffffffffffffffffffffffffffffff1673ffffffffffffffffffffffffffffffffffffffff16141561060f57600260008281526020019081526020016000206040518060e0016040529081600082015481526020016001820160009054906101000a900473ffffffffffffffffffffffffffffffffffffffff1673ffffffffffffffffffffffffffffffffffffffff1673ffffffffffffffffffffffffffffffffffffffff16815260200160028201548152602001600382015481526020016004820160009054906101000a900473ffffffffffffffffffffffffffffffffffffffff1673ffffffffffffffffffffffffffffffffffffffff1673ffffffffffffffffffffffffffffffffffffffff1681526020016005820160009054906101000a900473ffffffffffffffffffffffffffffffffffffffff1673ffffffffffffffffffffffffffffffffffffffff1673ffffffffffffffffffffffffffffffffffffffff1681526020016005820160149054906101000a900460ff1615151515815250508383815181106105f5576105f4612186565b5b6020026020010181905250818061060b906121e4565b9250505b808061061a906121e4565b915050610415565b508082528192505050919050565b60006002600083815260200190815260200160002090508060050160009054906101000a900473ffffffffffffffffffffffffffffffffffffffff1673ffffffffffffffffffffffffffffffffffffffff163373ffffffffffffffffffffffffffffffffffffffff16146106d9576040517f08c379a00000000000000000000000000000000000000000000000000000000081526004016106d0906122b0565b60405180910390fd5b8060010160009054906101000a900473ffffffffffffffffffffffffffffffffffffffff1673ffffffffffffffffffffffffffffffffffffffff1663095ea7b33083600201546040518363ffffffff1660e01b815260040161073c9291906122df565b600060405180830381600087803b15801561075657600080fd5b505af115801561076a573d6000803e3d6000fd5b505050505050565b3373ffffffffffffffffffffffffffffffffffffffff168373ffffffffffffffffffffffffffffffffffffffff16636352211e846040518263ffffffff1660e01b81526004016107c29190611d17565b60206040518083038186803b1580156107da57600080fd5b505afa1580156107ee573d6000803e3d6000fd5b505050506040513d601f19601f82011682018060405250810190610812919061231d565b73ffffffffffffffffffffffffffffffffffffffff1614610868576040517f08c379a000000000000000000000000000000000000000000000000000000000815260040161085f90612396565b60405180910390fd5b8273ffffffffffffffffffffffffffffffffffffffff1663095ea7b330846040518363ffffffff1660e01b81526004016108a39291906122df565b600060405180830381600087803b1580156108bd57600080fd5b505af11580156108d1573d6000803e3d6000fd5b50505050600160008154809291906108e8906121e4565b91905055506040518060e0016040528060015481526020018473ffffffffffffffffffffffffffffffffffffffff1681526020018381526020018281526020013373ffffffffffffffffffffffffffffffffffffffff168152602001600073ffffffffffffffffffffffffffffffffffffffff168152602001600015158152506002600060015481526020019081526020016000206000820151816000015560208201518160010160006101000a81548173ffffffffffffffffffffffffffffffffffffffff021916908373ffffffffffffffffffffffffffffffffffffffff160217905550604082015181600201556060820151816003015560808201518160040160006101000a81548173ffffffffffffffffffffffffffffffffffffffff021916908373ffffffffffffffffffffffffffffffffffffffff16021790555060a08201518160050160006101000a81548173ffffffffffffffffffffffffffffffffffffffff021916908373ffffffffffffffffffffffffffffffffffffffff16021790555060c08201518160050160146101000a81548160ff0219169083151502179055509050503373ffffffffffffffffffffffffffffffffffffffff168373ffffffffffffffffffffffffffffffffffffffff167f655a0cf9c8db81512be9a76dc1c5ae5380b8816ce6ad659cd61b715e2999d59a6001548585604051610af6939291906123b6565b60405180910390a3505050565b7f000000000000000000000000000000000000000000000000000000000000000081565b60015481565b7f000000000000000000000000000000000000000000000000000000000000000081565b60006002600085815260200190815260200160002090508060010160009054906101000a900473ffffffffffffffffffffffffffffffffffffffff1673ffffffffffffffffffffffffffffffffffffffff1663095ea7b384846040518363ffffffff1660e01b8152600401610bc79291906122df565b600060405180830381600087803b158015610be157600080fd5b505af1158015610bf5573d6000803e3d6000fd5b5050505050505050565b610c07611c10565b60006002600084815260200190815260200160002090503373ffffffffffffffffffffffffffffffffffffffff168160010160009054906101000a900473ffffffffffffffffffffffffffffffffffffffff1673ffffffffffffffffffffffffffffffffffffffff16636352211e83600201546040518263ffffffff1660e01b8152600401610c969190611d17565b60206040518083038186803b158015610cae57600080fd5b505afa158015610cc2573d6000803e3d6000fd5b505050506040513d601f19601f82011682018060405250810190610ce6919061231d565b73ffffffffffffffffffffffffffffffffffffffff1614610d3c576040517f08c379a0000000000000000000000000000000000000000000000000000000008152600401610d3390612439565b60405180910390fd5b3373ffffffffffffffffffffffffffffffffffffffff168160050160009054906101000a900473ffffffffffffffffffffffffffffffffffffffff1673ffffffffffffffffffffffffffffffffffffffff1614610dce576040517f08c379a0000000000000000000000000000000000000000000000000000000008152600401610dc5906124cb565b60405180910390fd5b8060050160149054906101000a900460ff16610e1f576040517f08c379a0000000000000000000000000000000000000000000000000000000008152600401610e1690612537565b60405180910390fd5b8060010160009054906101000a900473ffffffffffffffffffffffffffffffffffffffff1673ffffffffffffffffffffffffffffffffffffffff166323b872dd333084600201546040518463ffffffff1660e01b8152600401610e8493929190612557565b600060405180830381600087803b158015610e9e57600080fd5b505af1158015610eb2573d6000803e3d6000fd5b5050505081816003018190555060008160050160146101000a81548160ff021916908315150217905550338160040160006101000a81548173ffffffffffffffffffffffffffffffffffffffff021916908373ffffffffffffffffffffffffffffffffffffffff16021790555060008160050160006101000a81548173ffffffffffffffffffffffffffffffffffffffff021916908373ffffffffffffffffffffffffffffffffffffffff1602179055503373ffffffffffffffffffffffffffffffffffffffff168160010160009054906101000a900473ffffffffffffffffffffffffffffffffffffffff1673ffffffffffffffffffffffffffffffffffffffff167f655a0cf9c8db81512be9a76dc1c5ae5380b8816ce6ad659cd61b715e2999d59a600154846002015486604051610fee939291906123b6565b60405180910390a350610fff611c60565b5050565b60026020528060005260406000206000915090508060000154908060010160009054906101000a900473ffffffffffffffffffffffffffffffffffffffff16908060020154908060030154908060040160009054906101000a900473ffffffffffffffffffffffffffffffffffffffff16908060050160009054906101000a900473ffffffffffffffffffffffffffffffffffffffff16908060050160149054906101000a900460ff16905087565b600060647f000000000000000000000000000000000000000000000000000000000000000060646110e3919061258e565b600260008581526020019081526020016000206003015461110491906125e4565b61110e919061266d565b9050919050565b61111d611c10565b6000611128826110b2565b905060006002600084815260200190815260200160002090507390f79bf6eb2c4f870365e785982e1f101e93b90673ffffffffffffffffffffffffffffffffffffffff163373ffffffffffffffffffffffffffffffffffffffff1614156111c4576040517f08c379a00000000000000000000000000000000000000000000000000000000081526004016111bb906126ea565b60405180910390fd5b6000831180156111d657506001548311155b611215576040517f08c379a000000000000000000000000000000000000000000000000000000000815260040161120c90612756565b60405180910390fd5b81341015611258576040517f08c379a000000000000000000000000000000000000000000000000000000000815260040161124f906127e8565b60405180910390fd5b8060050160149054906101000a900460ff16156112aa576040517f08c379a00000000000000000000000000000000000000000000000000000000081526004016112a190612854565b60405180910390fd5b8060040160009054906101000a900473ffffffffffffffffffffffffffffffffffffffff1673ffffffffffffffffffffffffffffffffffffffff166108fc82600301549081150290604051600060405180830381858888f19350505050158015611318573d6000803e3d6000fd5b507f000000000000000000000000000000000000000000000000000000000000000073ffffffffffffffffffffffffffffffffffffffff166108fc8260030154846113639190612874565b9081150290604051600060405180830381858888f1935050505015801561138e573d6000803e3d6000fd5b5060018160050160146101000a81548160ff0219169083151502179055508060010160009054906101000a900473ffffffffffffffffffffffffffffffffffffffff1673ffffffffffffffffffffffffffffffffffffffff166323b872dd303384600201546040518463ffffffff1660e01b815260040161141193929190612557565b600060405180830381600087803b15801561142b57600080fd5b505af115801561143f573d6000803e3d6000fd5b50505050338160050160006101000a81548173ffffffffffffffffffffffffffffffffffffffff021916908373ffffffffffffffffffffffffffffffffffffffff1602179055503373ffffffffffffffffffffffffffffffffffffffff168160040160009054906101000a900473ffffffffffffffffffffffffffffffffffffffff1673ffffffffffffffffffffffffffffffffffffffff168260010160009054906101000a900473ffffffffffffffffffffffffffffffffffffffff1673ffffffffffffffffffffffffffffffffffffffff167f8b4c9c8a607d67b321582dd8461041b1dc2ceeca70c8b7f37f8e02095cf2e76d868560020154866003015460405161154e939291906123b6565b60405180910390a45050611560611c60565b50565b61156b611c10565b600060026000838152602001908152602001600020905060008211801561159457506001548211155b6115d3576040517f08c379a00000000000000000000000000000000000000000000000000000000081526004016115ca90612756565b60405180910390fd5b7390f79bf6eb2c4f870365e785982e1f101e93b90673ffffffffffffffffffffffffffffffffffffffff163373ffffffffffffffffffffffffffffffffffffffff161415611656576040517f08c379a000000000000000000000000000000000000000000000000000000000815260040161164d906126ea565b60405180910390fd5b8060050160149054906101000a900460ff16156116a8576040517f08c379a000000000000000000000000000000000000000000000000000000000815260040161169f90612854565b60405180910390fd5b7390f79bf6eb2c4f870365e785982e1f101e93b90673ffffffffffffffffffffffffffffffffffffffff168160040160009054906101000a900473ffffffffffffffffffffffffffffffffffffffff1673ffffffffffffffffffffffffffffffffffffffff161461174e576040517f08c379a00000000000000000000000000000000000000000000000000000000081526004016117459061291a565b60405180910390fd5b60018160050160146101000a81548160ff0219169083151502179055508060010160009054906101000a900473ffffffffffffffffffffffffffffffffffffffff1673ffffffffffffffffffffffffffffffffffffffff166323b872dd303384600201546040518463ffffffff1660e01b81526004016117d093929190612557565b600060405180830381600087803b1580156117ea57600080fd5b505af11580156117fe573d6000803e3d6000fd5b50505050338160050160006101000a81548173ffffffffffffffffffffffffffffffffffffffff021916908373ffffffffffffffffffffffffffffffffffffffff1602179055503373ffffffffffffffffffffffffffffffffffffffff168160040160009054906101000a900473ffffffffffffffffffffffffffffffffffffffff1673ffffffffffffffffffffffffffffffffffffffff168260010160009054906101000a900473ffffffffffffffffffffffffffffffffffffffff1673ffffffffffffffffffffffffffffffffffffffff167f8b4c9c8a607d67b321582dd8461041b1dc2ceeca70c8b7f37f8e02095cf2e76d858560020154866003015460405161190d939291906123b6565b60405180910390a45061191e611c60565b50565b611929611c10565b6000811161196c576040517f08c379a000000000000000000000000000000000000000000000000000000000815260040161196390612986565b60405180910390fd5b6001600081548092919061197f906121e4565b91905055508273ffffffffffffffffffffffffffffffffffffffff166323b872dd3330856040518463ffffffff1660e01b81526004016119c193929190612557565b600060405180830381600087803b1580156119db57600080fd5b505af11580156119ef573d6000803e3d6000fd5b505050506040518060e0016040528060015481526020018473ffffffffffffffffffffffffffffffffffffffff1681526020018381526020018281526020013373ffffffffffffffffffffffffffffffffffffffff1681526020013373ffffffffffffffffffffffffffffffffffffffff168152602001600015158152506002600060015481526020019081526020016000206000820151816000015560208201518160010160006101000a81548173ffffffffffffffffffffffffffffffffffffffff021916908373ffffffffffffffffffffffffffffffffffffffff160217905550604082015181600201556060820151816003015560808201518160040160006101000a81548173ffffffffffffffffffffffffffffffffffffffff021916908373ffffffffffffffffffffffffffffffffffffffff16021790555060a08201518160050160006101000a81548173ffffffffffffffffffffffffffffffffffffffff021916908373ffffffffffffffffffffffffffffffffffffffff16021790555060c08201518160050160146101000a81548160ff0219169083151502179055509050503373ffffffffffffffffffffffffffffffffffffffff168373ffffffffffffffffffffffffffffffffffffffff167f655a0cf9c8db81512be9a76dc1c5ae5380b8816ce6ad659cd61b715e2999d59a6001548585604051611bfb939291906123b6565b60405180910390a3611c0b611c60565b505050565b60026000541415611c56576040517f08c379a0000000000000000000000000000000000000000000000000000000008152600401611c4d906129f2565b60405180910390fd5b6002600081905550565b6001600081905550565b600080fd5b6000819050919050565b611c8281611c6f565b8114611c8d57600080fd5b50565b600081359050611c9f81611c79565b92915050565b600060208284031215611cbb57611cba611c6a565b5b6000611cc984828501611c90565b91505092915050565b60008115159050919050565b611ce781611cd2565b82525050565b6000602082019050611d026000830184611cde565b92915050565b611d1181611c6f565b82525050565b6000602082019050611d2c6000830184611d08565b92915050565b600073ffffffffffffffffffffffffffffffffffffffff82169050919050565b6000611d5d82611d32565b9050919050565b611d6d81611d52565b8114611d7857600080fd5b50565b600081359050611d8a81611d64565b92915050565b600060208284031215611da657611da5611c6a565b5b6000611db484828501611d7b565b91505092915050565b600081519050919050565b600082825260208201905092915050565b6000819050602082019050919050565b611df281611c6f565b82525050565b6000819050919050565b6000611e1d611e18611e1384611d32565b611df8565b611d32565b9050919050565b6000611e2f82611e02565b9050919050565b6000611e4182611e24565b9050919050565b611e5181611e36565b82525050565b6000611e6282611d32565b9050919050565b611e7281611e57565b82525050565b611e8181611cd2565b82525050565b60e082016000820151611e9d6000850182611de9565b506020820151611eb06020850182611e48565b506040820151611ec36040850182611de9565b506060820151611ed66060850182611de9565b506080820151611ee96080850182611e69565b5060a0820151611efc60a0850182611e69565b5060c0820151611f0f60c0850182611e78565b50505050565b6000611f218383611e87565b60e08301905092915050565b6000602082019050919050565b6000611f4582611dbd565b611f4f8185611dc8565b9350611f5a83611dd9565b8060005b83811015611f8b578151611f728882611f15565b9750611f7d83611f2d565b925050600181019050611f5e565b5085935050505092915050565b60006020820190508181036000830152611fb28184611f3a565b905092915050565b6000611fc582611d52565b9050919050565b611fd581611fba565b8114611fe057600080fd5b50565b600081359050611ff281611fcc565b92915050565b60008060006060848603121561201157612010611c6a565b5b600061201f86828701611fe3565b935050602061203086828701611c90565b925050604061204186828701611c90565b9150509250925092565b61205481611e57565b82525050565b600060208201905061206f600083018461204b565b92915050565b60008060006060848603121561208e5761208d611c6a565b5b600061209c86828701611c90565b93505060206120ad86828701611d7b565b92505060406120be86828701611c90565b9150509250925092565b600080604083850312156120df576120de611c6a565b5b60006120ed85828601611c90565b92505060206120fe85828601611c90565b9150509250929050565b61211181611e36565b82525050565b600060e08201905061212c600083018a611d08565b6121396020830189612108565b6121466040830188611d08565b6121536060830187611d08565b612160608083018661204b565b61216d60a083018561204b565b61217a60c0830184611cde565b98975050505050505050565b7f4e487b7100000000000000000000000000000000000000000000000000000000600052603260045260246000fd5b7f4e487b7100000000000000000000000000000000000000000000000000000000600052601160045260246000fd5b60006121ef82611c6f565b91507fffffffffffffffffffffffffffffffffffffffffffffffffffffffffffffffff821415612222576122216121b5565b5b600182019050919050565b600082825260208201905092915050565b7f4f6e6c7920746865206f776e65722063616e20617070726f766520746865206d60008201527f61726b6574706c61636500000000000000000000000000000000000000000000602082015250565b600061229a602a8361222d565b91506122a58261223e565b604082019050919050565b600060208201905081810360008301526122c98161228d565b9050919050565b6122d981611d52565b82525050565b60006040820190506122f460008301856122d0565b6123016020830184611d08565b9392505050565b60008151905061231781611d64565b92915050565b60006020828403121561233357612332611c6a565b5b600061234184828501612308565b91505092915050565b7f596f7520646f206e6f74206f776e207468697320746f6b656e00000000000000600082015250565b600061238060198361222d565b915061238b8261234a565b602082019050919050565b600060208201905081810360008301526123af81612373565b9050919050565b60006060820190506123cb6000830186611d08565b6123d86020830185611d08565b6123e56040830184611d08565b949350505050565b7f596f7520617265206e6f7420746865206f776e6572206f6620746865204e4654600082015250565b600061242360208361222d565b915061242e826123ed565b602082019050919050565b6000602082019050818103600083015261245281612416565b9050919050565b7f4f6e6c7920746865206f776e65722063616e20726573656c6c2074686520697460008201527f656d000000000000000000000000000000000000000000000000000000000000602082015250565b60006124b560228361222d565b91506124c082612459565b604082019050919050565b600060208201905081810360008301526124e4816124a8565b9050919050565b7f4974656d206e6f7420736f6c6400000000000000000000000000000000000000600082015250565b6000612521600d8361222d565b915061252c826124eb565b602082019050919050565b6000602082019050818103600083015261255081612514565b9050919050565b600060608201905061256c60008301866122d0565b61257960208301856122d0565b6125866040830184611d08565b949350505050565b600061259982611c6f565b91506125a483611c6f565b9250827fffffffffffffffffffffffffffffffffffffffffffffffffffffffffffffffff038211156125d9576125d86121b5565b5b828201905092915050565b60006125ef82611c6f565b91506125fa83611c6f565b9250817fffffffffffffffffffffffffffffffffffffffffffffffffffffffffffffffff0483118215151615612633576126326121b5565b5b828202905092915050565b7f4e487b7100000000000000000000000000000000000000000000000000000000600052601260045260246000fd5b600061267882611c6f565b915061268383611c6f565b9250826126935761269261263e565b5b828204905092915050565b7f796f75206172652061646d696e206f6620746869732070616765000000000000600082015250565b60006126d4601a8361222d565b91506126df8261269e565b602082019050919050565b60006020820190508181036000830152612703816126c7565b9050919050565b7f6974656d20646f65736e27742065786973740000000000000000000000000000600082015250565b600061274060128361222d565b915061274b8261270a565b602082019050919050565b6000602082019050818103600083015261276f81612733565b9050919050565b7f6e6f7420656e6f75676820657468657220746f20636f766572206974656d207060008201527f7269636520616e64206d61726b65742066656500000000000000000000000000602082015250565b60006127d260338361222d565b91506127dd82612776565b604082019050919050565b60006020820190508181036000830152612801816127c5565b9050919050565b7f6974656d20616c726561647920736f6c64000000000000000000000000000000600082015250565b600061283e60118361222d565b915061284982612808565b602082019050919050565b6000602082019050818103600083015261286d81612831565b9050919050565b600061287f82611c6f565b915061288a83611c6f565b92508282101561289d5761289c6121b5565b5b828203905092915050565b7f6974656d206973206e6f74206f776e656420627920746865206669786564206160008201527f63636f756e740000000000000000000000000000000000000000000000000000602082015250565b600061290460268361222d565b915061290f826128a8565b604082019050919050565b60006020820190508181036000830152612933816128f7565b9050919050565b7f5072696365206d7573742062652067726561746572207468616e207a65726f00600082015250565b6000612970601f8361222d565b915061297b8261293a565b602082019050919050565b6000602082019050818103600083015261299f81612963565b9050919050565b7f5265656e7472616e637947756172643a207265656e7472616e742063616c6c00600082015250565b60006129dc601f8361222d565b91506129e7826129a6565b602082019050919050565b60006020820190508181036000830152612a0b816129cf565b905091905056fea26469706673582212200860b352a5f90309a89a9cff17c05f88c8bc2e8d1e50e5bf097468f63f8590e864736f6c63430008090033",
  "linkReferences": {},
  "deployedLinkReferences": {}
}