{
  "_format": "hh-sol-artifact-1",
  "contractName": "Marketplace",
  "sourceName": "src/backend/contracts/Marketplace.sol",
  "abi": [
    {
      "inputs": [
        {
          "internalType": "uint256",
          "name": "_feePercent",
          "type": "uint256"
        }
      ],
      "stateMutability": "nonpayable",
      "type": "constructor"
    },
    {
      "anonymous": false,
      "inputs": [
        {
          "indexed": false,
          "internalType": "uint256",
          "name": "itemId",
          "type": "uint256"
        },
        {
          "indexed": true,
          "internalType": "address",
          "name": "nft",
          "type": "address"
        },
        {
          "indexed": false,
          "internalType": "uint256",
          "name": "tokenId",
          "type": "uint256"
        },
        {
          "indexed": false,
          "internalType": "uint256",
          "name": "price",
          "type": "uint256"
        },
        {
          "indexed": true,
          "internalType": "address",
          "name": "seller",
          "type": "address"
        },
        {
          "indexed": true,
          "internalType": "address",
          "name": "buyer",
          "type": "address"
        }
      ],
      "name": "Bought",
      "type": "event"
    },
    {
      "anonymous": false,
      "inputs": [
        {
          "indexed": false,
          "internalType": "uint256",
          "name": "itemId",
          "type": "uint256"
        },
        {
          "indexed": true,
          "internalType": "address",
          "name": "nft",
          "type": "address"
        },
        {
          "indexed": false,
          "internalType": "uint256",
          "name": "tokenId",
          "type": "uint256"
        },
        {
          "indexed": false,
          "internalType": "uint256",
          "name": "price",
          "type": "uint256"
        },
        {
          "indexed": true,
          "internalType": "address",
          "name": "owner",
          "type": "address"
        }
      ],
      "name": "Offered",
      "type": "event"
    },
    {
      "inputs": [
        {
          "internalType": "uint256",
          "name": "_itemId",
          "type": "uint256"
        }
      ],
      "name": "claimFromFixedAccount",
      "outputs": [],
      "stateMutability": "nonpayable",
      "type": "function"
    },
    {
      "inputs": [],
      "name": "feeAccount",
      "outputs": [
        {
          "internalType": "address payable",
          "name": "",
          "type": "address"
        }
      ],
      "stateMutability": "view",
      "type": "function"
    },
    {
      "inputs": [],
      "name": "feePercent",
      "outputs": [
        {
          "internalType": "uint256",
          "name": "",
          "type": "uint256"
        }
      ],
      "stateMutability": "view",
      "type": "function"
    },
    {
      "inputs": [
        {
          "internalType": "address",
          "name": "owner",
          "type": "address"
        }
      ],
      "name": "getItemsByOwner",
      "outputs": [
        {
          "components": [
            {
              "internalType": "uint256",
              "name": "itemId",
              "type": "uint256"
            },
            {
              "internalType": "contract IERC721",
              "name": "nft",
              "type": "address"
            },
            {
              "internalType": "uint256",
              "name": "tokenId",
              "type": "uint256"
            },
            {
              "internalType": "uint256",
              "name": "price",
              "type": "uint256"
            },
            {
              "internalType": "address payable",
              "name": "seller",
              "type": "address"
            },
            {
              "internalType": "address payable",
              "name": "owner",
              "type": "address"
            },
            {
              "internalType": "bool",
              "name": "sold",
              "type": "bool"
            }
          ],
          "internalType": "struct Marketplace.Item[]",
          "name": "",
          "type": "tuple[]"
        }
      ],
      "stateMutability": "view",
      "type": "function"
    },
    {
      "inputs": [
        {
          "internalType": "uint256",
          "name": "_itemId",
          "type": "uint256"
        }
      ],
      "name": "getTotalPrice",
      "outputs": [
        {
          "internalType": "uint256",
          "name": "",
          "type": "uint256"
        }
      ],
      "stateMutability": "view",
      "type": "function"
    },
    {
      "inputs": [
        {
          "internalType": "uint256",
          "name": "_itemId",
          "type": "uint256"
        }
      ],
      "name": "isSold",
      "outputs": [
        {
          "internalType": "bool",
          "name": "",
          "type": "bool"
        }
      ],
      "stateMutability": "view",
      "type": "function"
    },
    {
      "inputs": [],
      "name": "itemCount",
      "outputs": [
        {
          "internalType": "uint256",
          "name": "",
          "type": "uint256"
        }
      ],
      "stateMutability": "view",
      "type": "function"
    },
    {
      "inputs": [
        {
          "internalType": "uint256",
          "name": "",
          "type": "uint256"
        }
      ],
      "name": "items",
      "outputs": [
        {
          "internalType": "uint256",
          "name": "itemId",
          "type": "uint256"
        },
        {
          "internalType": "contract IERC721",
          "name": "nft",
          "type": "address"
        },
        {
          "internalType": "uint256",
          "name": "tokenId",
          "type": "uint256"
        },
        {
          "internalType": "uint256",
          "name": "price",
          "type": "uint256"
        },
        {
          "internalType": "address payable",
          "name": "seller",
          "type": "address"
        },
        {
          "internalType": "address payable",
          "name": "owner",
          "type": "address"
        },
        {
          "internalType": "bool",
          "name": "sold",
          "type": "bool"
        }
      ],
      "stateMutability": "view",
      "type": "function"
    },
    {
      "inputs": [
        {
          "internalType": "contract IERC721",
          "name": "_nft",
          "type": "address"
        },
        {
          "internalType": "uint256",
          "name": "_tokenId",
          "type": "uint256"
        },
        {
          "internalType": "uint256",
          "name": "_price",
          "type": "uint256"
        }
      ],
      "name": "makeItem",
      "outputs": [],
      "stateMutability": "nonpayable",
      "type": "function"
    },
    {
      "inputs": [
        {
          "internalType": "uint256",
          "name": "_itemId",
          "type": "uint256"
        }
      ],
      "name": "purchaseItem",
      "outputs": [],
      "stateMutability": "payable",
      "type": "function"
    },
    {
      "inputs": [
        {
          "internalType": "uint256",
          "name": "_itemId",
          "type": "uint256"
        },
        {
          "internalType": "uint256",
          "name": "_price",
          "type": "uint256"
        }
      ],
      "name": "reSell",
      "outputs": [],
      "stateMutability": "nonpayable",
      "type": "function"
    }
  ],
  "bytecode": "0x60c06040523480156200001157600080fd5b506040516200234e3803806200234e8339818101604052810190620000379190620000c2565b60016000819055503373ffffffffffffffffffffffffffffffffffffffff1660808173ffffffffffffffffffffffffffffffffffffffff16815250508060a0818152505050620000f4565b600080fd5b6000819050919050565b6200009c8162000087565b8114620000a857600080fd5b50565b600081519050620000bc8162000091565b92915050565b600060208284031215620000db57620000da62000082565b5b6000620000eb84828501620000ab565b91505092915050565b60805160a05161222662000128600039600081816105330152610a100152600081816105090152610c7301526122266000f3fe60806040526004361061009c5760003560e01c8063b25d0edc11610064578063b25d0edc1461019c578063bfb231d2146101c5578063ca7dd37514610208578063d38ea5bf14610245578063f55603d814610261578063fa00afc71461028a5761009c565b80630110a176146100a15780632c67a8e5146100de57806365e17c9d1461011b5780636bfb0d01146101465780637fd6f15c14610171575b600080fd5b3480156100ad57600080fd5b506100c860048036038101906100c391906115fd565b6102b3565b6040516100d59190611645565b60405180910390f35b3480156100ea57600080fd5b50610105600480360381019061010091906116be565b6102e5565b60405161011291906118c6565b60405180910390f35b34801561012757600080fd5b50610130610507565b60405161013d91906118f7565b60405180910390f35b34801561015257600080fd5b5061015b61052b565b6040516101689190611921565b60405180910390f35b34801561017d57600080fd5b50610186610531565b6040516101939190611921565b60405180910390f35b3480156101a857600080fd5b506101c360048036038101906101be919061193c565b610555565b005b3480156101d157600080fd5b506101ec60048036038101906101e791906115fd565b61095b565b6040516101ff979695949392919061198b565b60405180910390f35b34801561021457600080fd5b5061022f600480360381019061022a91906115fd565b610a0a565b60405161023c9190611921565b60405180910390f35b61025f600480360381019061025a91906115fd565b610a6d565b005b34801561026d57600080fd5b50610288600480360381019061028391906115fd565b610ebb565b005b34801561029657600080fd5b506102b160048036038101906102ac9190611a38565b611279565b005b6000806002600084815260200190815260200160002090508060050160149054906101000a900460ff16915050919050565b6060806000805b6001548110156104f9578473ffffffffffffffffffffffffffffffffffffffff166002600083815260200190815260200160002060050160009054906101000a900473ffffffffffffffffffffffffffffffffffffffff1673ffffffffffffffffffffffffffffffffffffffff1614156104e657600260008281526020019081526020016000206040518060e0016040529081600082015481526020016001820160009054906101000a900473ffffffffffffffffffffffffffffffffffffffff1673ffffffffffffffffffffffffffffffffffffffff1673ffffffffffffffffffffffffffffffffffffffff16815260200160028201548152602001600382015481526020016004820160009054906101000a900473ffffffffffffffffffffffffffffffffffffffff1673ffffffffffffffffffffffffffffffffffffffff1673ffffffffffffffffffffffffffffffffffffffff1681526020016005820160009054906101000a900473ffffffffffffffffffffffffffffffffffffffff1673ffffffffffffffffffffffffffffffffffffffff1673ffffffffffffffffffffffffffffffffffffffff1681526020016005820160149054906101000a900460ff1615151515815250508383815181106104cc576104cb611a8b565b5b602002602001018190525081806104e290611ae9565b9250505b80806104f190611ae9565b9150506102ec565b508082528192505050919050565b7f000000000000000000000000000000000000000000000000000000000000000081565b60015481565b7f000000000000000000000000000000000000000000000000000000000000000081565b61055d611568565b60006002600084815260200190815260200160002090503373ffffffffffffffffffffffffffffffffffffffff168160010160009054906101000a900473ffffffffffffffffffffffffffffffffffffffff1673ffffffffffffffffffffffffffffffffffffffff16636352211e83600201546040518263ffffffff1660e01b81526004016105ec9190611921565b60206040518083038186803b15801561060457600080fd5b505afa158015610618573d6000803e3d6000fd5b505050506040513d601f19601f8201168201806040525081019061063c9190611b47565b73ffffffffffffffffffffffffffffffffffffffff1614610692576040517f08c379a000000000000000000000000000000000000000000000000000000000815260040161068990611bd1565b60405180910390fd5b3373ffffffffffffffffffffffffffffffffffffffff168160050160009054906101000a900473ffffffffffffffffffffffffffffffffffffffff1673ffffffffffffffffffffffffffffffffffffffff1614610724576040517f08c379a000000000000000000000000000000000000000000000000000000000815260040161071b90611c63565b60405180910390fd5b8060050160149054906101000a900460ff16610775576040517f08c379a000000000000000000000000000000000000000000000000000000000815260040161076c90611ccf565b60405180910390fd5b8060010160009054906101000a900473ffffffffffffffffffffffffffffffffffffffff1673ffffffffffffffffffffffffffffffffffffffff166323b872dd333084600201546040518463ffffffff1660e01b81526004016107da93929190611cfe565b600060405180830381600087803b1580156107f457600080fd5b505af1158015610808573d6000803e3d6000fd5b5050505081816003018190555060008160050160146101000a81548160ff021916908315150217905550338160040160006101000a81548173ffffffffffffffffffffffffffffffffffffffff021916908373ffffffffffffffffffffffffffffffffffffffff16021790555060008160050160006101000a81548173ffffffffffffffffffffffffffffffffffffffff021916908373ffffffffffffffffffffffffffffffffffffffff1602179055503373ffffffffffffffffffffffffffffffffffffffff168160010160009054906101000a900473ffffffffffffffffffffffffffffffffffffffff1673ffffffffffffffffffffffffffffffffffffffff167f655a0cf9c8db81512be9a76dc1c5ae5380b8816ce6ad659cd61b715e2999d59a858460020154856003015460405161094693929190611d35565b60405180910390a3506109576115b8565b5050565b60026020528060005260406000206000915090508060000154908060010160009054906101000a900473ffffffffffffffffffffffffffffffffffffffff16908060020154908060030154908060040160009054906101000a900473ffffffffffffffffffffffffffffffffffffffff16908060050160009054906101000a900473ffffffffffffffffffffffffffffffffffffffff16908060050160149054906101000a900460ff16905087565b600060647f00000000000000000000000000000000000000000000000000000000000000006064610a3b9190611d6c565b6002600085815260200190815260200160002060030154610a5c9190611dc2565b610a669190611e4b565b9050919050565b610a75611568565b6000610a8082610a0a565b905060006002600084815260200190815260200160002090507390f79bf6eb2c4f870365e785982e1f101e93b90673ffffffffffffffffffffffffffffffffffffffff163373ffffffffffffffffffffffffffffffffffffffff161415610b1c576040517f08c379a0000000000000000000000000000000000000000000000000000000008152600401610b1390611ec8565b60405180910390fd5b600083118015610b2e57506001548311155b610b6d576040517f08c379a0000000000000000000000000000000000000000000000000000000008152600401610b6490611f34565b60405180910390fd5b81341015610bb0576040517f08c379a0000000000000000000000000000000000000000000000000000000008152600401610ba790611fc6565b60405180910390fd5b8060050160149054906101000a900460ff1615610c02576040517f08c379a0000000000000000000000000000000000000000000000000000000008152600401610bf990612032565b60405180910390fd5b8060040160009054906101000a900473ffffffffffffffffffffffffffffffffffffffff1673ffffffffffffffffffffffffffffffffffffffff166108fc82600301549081150290604051600060405180830381858888f19350505050158015610c70573d6000803e3d6000fd5b507f000000000000000000000000000000000000000000000000000000000000000073ffffffffffffffffffffffffffffffffffffffff166108fc826003015484610cbb9190612052565b9081150290604051600060405180830381858888f19350505050158015610ce6573d6000803e3d6000fd5b5060018160050160146101000a81548160ff0219169083151502179055508060010160009054906101000a900473ffffffffffffffffffffffffffffffffffffffff1673ffffffffffffffffffffffffffffffffffffffff166323b872dd303384600201546040518463ffffffff1660e01b8152600401610d6993929190611cfe565b600060405180830381600087803b158015610d8357600080fd5b505af1158015610d97573d6000803e3d6000fd5b50505050338160050160006101000a81548173ffffffffffffffffffffffffffffffffffffffff021916908373ffffffffffffffffffffffffffffffffffffffff1602179055503373ffffffffffffffffffffffffffffffffffffffff168160040160009054906101000a900473ffffffffffffffffffffffffffffffffffffffff1673ffffffffffffffffffffffffffffffffffffffff168260010160009054906101000a900473ffffffffffffffffffffffffffffffffffffffff1673ffffffffffffffffffffffffffffffffffffffff167f8b4c9c8a607d67b321582dd8461041b1dc2ceeca70c8b7f37f8e02095cf2e76d8685600201548660030154604051610ea693929190611d35565b60405180910390a45050610eb86115b8565b50565b610ec3611568565b6000600260008381526020019081526020016000209050600082118015610eec57506001548211155b610f2b576040517f08c379a0000000000000000000000000000000000000000000000000000000008152600401610f2290611f34565b60405180910390fd5b7390f79bf6eb2c4f870365e785982e1f101e93b90673ffffffffffffffffffffffffffffffffffffffff163373ffffffffffffffffffffffffffffffffffffffff161415610fae576040517f08c379a0000000000000000000000000000000000000000000000000000000008152600401610fa590611ec8565b60405180910390fd5b8060050160149054906101000a900460ff1615611000576040517f08c379a0000000000000000000000000000000000000000000000000000000008152600401610ff790612032565b60405180910390fd5b7390f79bf6eb2c4f870365e785982e1f101e93b90673ffffffffffffffffffffffffffffffffffffffff168160040160009054906101000a900473ffffffffffffffffffffffffffffffffffffffff1673ffffffffffffffffffffffffffffffffffffffff16146110a6576040517f08c379a000000000000000000000000000000000000000000000000000000000815260040161109d906120f8565b60405180910390fd5b60018160050160146101000a81548160ff0219169083151502179055508060010160009054906101000a900473ffffffffffffffffffffffffffffffffffffffff1673ffffffffffffffffffffffffffffffffffffffff166323b872dd303384600201546040518463ffffffff1660e01b815260040161112893929190611cfe565b600060405180830381600087803b15801561114257600080fd5b505af1158015611156573d6000803e3d6000fd5b50505050338160050160006101000a81548173ffffffffffffffffffffffffffffffffffffffff021916908373ffffffffffffffffffffffffffffffffffffffff1602179055503373ffffffffffffffffffffffffffffffffffffffff168160040160009054906101000a900473ffffffffffffffffffffffffffffffffffffffff1673ffffffffffffffffffffffffffffffffffffffff168260010160009054906101000a900473ffffffffffffffffffffffffffffffffffffffff1673ffffffffffffffffffffffffffffffffffffffff167f8b4c9c8a607d67b321582dd8461041b1dc2ceeca70c8b7f37f8e02095cf2e76d858560020154866003015460405161126593929190611d35565b60405180910390a4506112766115b8565b50565b611281611568565b600081116112c4576040517f08c379a00000000000000000000000000000000000000000000000000000000081526004016112bb90612164565b60405180910390fd5b600160008154809291906112d790611ae9565b91905055508273ffffffffffffffffffffffffffffffffffffffff166323b872dd3330856040518463ffffffff1660e01b815260040161131993929190611cfe565b600060405180830381600087803b15801561133357600080fd5b505af1158015611347573d6000803e3d6000fd5b505050506040518060e0016040528060015481526020018473ffffffffffffffffffffffffffffffffffffffff1681526020018381526020018281526020013373ffffffffffffffffffffffffffffffffffffffff1681526020013373ffffffffffffffffffffffffffffffffffffffff168152602001600015158152506002600060015481526020019081526020016000206000820151816000015560208201518160010160006101000a81548173ffffffffffffffffffffffffffffffffffffffff021916908373ffffffffffffffffffffffffffffffffffffffff160217905550604082015181600201556060820151816003015560808201518160040160006101000a81548173ffffffffffffffffffffffffffffffffffffffff021916908373ffffffffffffffffffffffffffffffffffffffff16021790555060a08201518160050160006101000a81548173ffffffffffffffffffffffffffffffffffffffff021916908373ffffffffffffffffffffffffffffffffffffffff16021790555060c08201518160050160146101000a81548160ff0219169083151502179055509050503373ffffffffffffffffffffffffffffffffffffffff168373ffffffffffffffffffffffffffffffffffffffff167f655a0cf9c8db81512be9a76dc1c5ae5380b8816ce6ad659cd61b715e2999d59a600154858560405161155393929190611d35565b60405180910390a36115636115b8565b505050565b600260005414156115ae576040517f08c379a00000000000000000000000000000000000000000000000000000000081526004016115a5906121d0565b60405180910390fd5b6002600081905550565b6001600081905550565b600080fd5b6000819050919050565b6115da816115c7565b81146115e557600080fd5b50565b6000813590506115f7816115d1565b92915050565b600060208284031215611613576116126115c2565b5b6000611621848285016115e8565b91505092915050565b60008115159050919050565b61163f8161162a565b82525050565b600060208201905061165a6000830184611636565b92915050565b600073ffffffffffffffffffffffffffffffffffffffff82169050919050565b600061168b82611660565b9050919050565b61169b81611680565b81146116a657600080fd5b50565b6000813590506116b881611692565b92915050565b6000602082840312156116d4576116d36115c2565b5b60006116e2848285016116a9565b91505092915050565b600081519050919050565b600082825260208201905092915050565b6000819050602082019050919050565b611720816115c7565b82525050565b6000819050919050565b600061174b61174661174184611660565b611726565b611660565b9050919050565b600061175d82611730565b9050919050565b600061176f82611752565b9050919050565b61177f81611764565b82525050565b600061179082611660565b9050919050565b6117a081611785565b82525050565b6117af8161162a565b82525050565b60e0820160008201516117cb6000850182611717565b5060208201516117de6020850182611776565b5060408201516117f16040850182611717565b5060608201516118046060850182611717565b5060808201516118176080850182611797565b5060a082015161182a60a0850182611797565b5060c082015161183d60c08501826117a6565b50505050565b600061184f83836117b5565b60e08301905092915050565b6000602082019050919050565b6000611873826116eb565b61187d81856116f6565b935061188883611707565b8060005b838110156118b95781516118a08882611843565b97506118ab8361185b565b92505060018101905061188c565b5085935050505092915050565b600060208201905081810360008301526118e08184611868565b905092915050565b6118f181611785565b82525050565b600060208201905061190c60008301846118e8565b92915050565b61191b816115c7565b82525050565b60006020820190506119366000830184611912565b92915050565b60008060408385031215611953576119526115c2565b5b6000611961858286016115e8565b9250506020611972858286016115e8565b9150509250929050565b61198581611764565b82525050565b600060e0820190506119a0600083018a611912565b6119ad602083018961197c565b6119ba6040830188611912565b6119c76060830187611912565b6119d460808301866118e8565b6119e160a08301856118e8565b6119ee60c0830184611636565b98975050505050505050565b6000611a0582611680565b9050919050565b611a15816119fa565b8114611a2057600080fd5b50565b600081359050611a3281611a0c565b92915050565b600080600060608486031215611a5157611a506115c2565b5b6000611a5f86828701611a23565b9350506020611a70868287016115e8565b9250506040611a81868287016115e8565b9150509250925092565b7f4e487b7100000000000000000000000000000000000000000000000000000000600052603260045260246000fd5b7f4e487b7100000000000000000000000000000000000000000000000000000000600052601160045260246000fd5b6000611af4826115c7565b91507fffffffffffffffffffffffffffffffffffffffffffffffffffffffffffffffff821415611b2757611b26611aba565b5b600182019050919050565b600081519050611b4181611692565b92915050565b600060208284031215611b5d57611b5c6115c2565b5b6000611b6b84828501611b32565b91505092915050565b600082825260208201905092915050565b7f596f7520617265206e6f7420746865206f776e6572206f6620746865204e4654600082015250565b6000611bbb602083611b74565b9150611bc682611b85565b602082019050919050565b60006020820190508181036000830152611bea81611bae565b9050919050565b7f4f6e6c7920746865206f776e65722063616e20726573656c6c2074686520697460008201527f656d000000000000000000000000000000000000000000000000000000000000602082015250565b6000611c4d602283611b74565b9150611c5882611bf1565b604082019050919050565b60006020820190508181036000830152611c7c81611c40565b9050919050565b7f4974656d206e6f7420736f6c6400000000000000000000000000000000000000600082015250565b6000611cb9600d83611b74565b9150611cc482611c83565b602082019050919050565b60006020820190508181036000830152611ce881611cac565b9050919050565b611cf881611680565b82525050565b6000606082019050611d136000830186611cef565b611d206020830185611cef565b611d2d6040830184611912565b949350505050565b6000606082019050611d4a6000830186611912565b611d576020830185611912565b611d646040830184611912565b949350505050565b6000611d77826115c7565b9150611d82836115c7565b9250827fffffffffffffffffffffffffffffffffffffffffffffffffffffffffffffffff03821115611db757611db6611aba565b5b828201905092915050565b6000611dcd826115c7565b9150611dd8836115c7565b9250817fffffffffffffffffffffffffffffffffffffffffffffffffffffffffffffffff0483118215151615611e1157611e10611aba565b5b828202905092915050565b7f4e487b7100000000000000000000000000000000000000000000000000000000600052601260045260246000fd5b6000611e56826115c7565b9150611e61836115c7565b925082611e7157611e70611e1c565b5b828204905092915050565b7f796f75206172652061646d696e206f6620746869732070616765000000000000600082015250565b6000611eb2601a83611b74565b9150611ebd82611e7c565b602082019050919050565b60006020820190508181036000830152611ee181611ea5565b9050919050565b7f6974656d20646f65736e27742065786973740000000000000000000000000000600082015250565b6000611f1e601283611b74565b9150611f2982611ee8565b602082019050919050565b60006020820190508181036000830152611f4d81611f11565b9050919050565b7f6e6f7420656e6f75676820657468657220746f20636f766572206974656d207060008201527f7269636520616e64206d61726b65742066656500000000000000000000000000602082015250565b6000611fb0603383611b74565b9150611fbb82611f54565b604082019050919050565b60006020820190508181036000830152611fdf81611fa3565b9050919050565b7f6974656d20616c726561647920736f6c64000000000000000000000000000000600082015250565b600061201c601183611b74565b915061202782611fe6565b602082019050919050565b6000602082019050818103600083015261204b8161200f565b9050919050565b600061205d826115c7565b9150612068836115c7565b92508282101561207b5761207a611aba565b5b828203905092915050565b7f6974656d206973206e6f74206f776e656420627920746865206669786564206160008201527f63636f756e740000000000000000000000000000000000000000000000000000602082015250565b60006120e2602683611b74565b91506120ed82612086565b604082019050919050565b60006020820190508181036000830152612111816120d5565b9050919050565b7f5072696365206d7573742062652067726561746572207468616e207a65726f00600082015250565b600061214e601f83611b74565b915061215982612118565b602082019050919050565b6000602082019050818103600083015261217d81612141565b9050919050565b7f5265656e7472616e637947756172643a207265656e7472616e742063616c6c00600082015250565b60006121ba601f83611b74565b91506121c582612184565b602082019050919050565b600060208201905081810360008301526121e9816121ad565b905091905056fea264697066735822122002a1657ba3662eab51b0bbec4a017ac634d5612fad21a45f5da5a75fa065b09a64736f6c63430008090033",
  "linkReferences": {},
  "deployedLinkReferences": {}
}